{
  "_format": "hh-sol-artifact-1",
  "contractName": "Tmp",
  "sourceName": "contracts/Tmp.sol",
  "abi": [
    {
      "inputs": [
        {
          "internalType": "uint256",
          "name": "parties",
          "type": "uint256"
        },
        {
          "internalType": "uint256",
          "name": "minPrice",
          "type": "uint256"
        }
      ],
      "stateMutability": "nonpayable",
      "type": "constructor"
    },
    {
      "inputs": [],
      "name": "Manager",
      "outputs": [
        {
          "internalType": "address payable",
          "name": "",
          "type": "address"
        }
      ],
      "stateMutability": "view",
      "type": "function"
    },
    {
      "inputs": [],
      "name": "MinPrice",
      "outputs": [
        {
          "internalType": "uint256",
          "name": "",
          "type": "uint256"
        }
      ],
      "stateMutability": "view",
      "type": "function"
    },
    {
      "inputs": [],
      "name": "TotalPool",
      "outputs": [
        {
          "internalType": "uint256",
          "name": "",
          "type": "uint256"
        }
      ],
      "stateMutability": "view",
      "type": "function"
    },
    {
      "inputs": [
        {
          "internalType": "uint256[]",
          "name": "votes",
          "type": "uint256[]"
        }
      ],
      "name": "placeBet",
      "outputs": [],
      "stateMutability": "payable",
      "type": "function"
    }
  ],
  "bytecode": "0x6080604052600060015534801561001557600080fd5b506040516104d13803806104d1833981810160405281019061003791906100dd565b336000806101000a81548173ffffffffffffffffffffffffffffffffffffffff021916908373ffffffffffffffffffffffffffffffffffffffff1602179055508060028190555060005b828110156100c0576003600090806001815401808255809150506001900390600052602060002001600090919091909150558080600101915050610081565b50505061013a565b6000815190506100d781610123565b92915050565b600080604083850312156100f057600080fd5b60006100fe858286016100c8565b925050602061010f858286016100c8565b9150509250929050565b6000819050919050565b61012c81610119565b811461013757600080fd5b50565b610388806101496000396000f3fe60806040526004361061003f5760003560e01c80634e30b0ac1461004457806378357e531461006f5780637bd486b31461009a578063f72ea9dc146100c5575b600080fd5b34801561005057600080fd5b506100596100e1565b60405161006691906102ea565b60405180910390f35b34801561007b57600080fd5b506100846100e7565b60405161009191906102af565b60405180910390f35b3480156100a657600080fd5b506100af61010b565b6040516100bc91906102ea565b60405180910390f35b6100df60048036038101906100da919061020c565b610111565b005b60025481565b60008054906101000a900473ffffffffffffffffffffffffffffffffffffffff1681565b60015481565b600380549050828290501461015b576040517f08c379a0000000000000000000000000000000000000000000000000000000008152600401610152906102ca565b60405180910390fd5b3460016000828254019250508190555060005b828290508110156101bd5782828281811061018557fe5b905060200201356003828154811061019957fe5b9060005260206000200160008282540192505081905550808060010191505061016e565b505050565b60008083601f8401126101d457600080fd5b8235905067ffffffffffffffff8111156101ed57600080fd5b60208301915083602082028301111561020557600080fd5b9250929050565b6000806020838503121561021f57600080fd5b600083013567ffffffffffffffff81111561023957600080fd5b610245858286016101c2565b92509250509250929050565b61025a81610316565b82525050565b600061026d600d83610305565b91507f496e76616c696420766f746573000000000000000000000000000000000000006000830152602082019050919050565b6102a981610348565b82525050565b60006020820190506102c46000830184610251565b92915050565b600060208201905081810360008301526102e381610260565b9050919050565b60006020820190506102ff60008301846102a0565b92915050565b600082825260208201905092915050565b600061032182610328565b9050919050565b600073ffffffffffffffffffffffffffffffffffffffff82169050919050565b600081905091905056fea2646970667358221220ed5d5a3080a83d12886df7e8e83f41479fd48a591d4608f4c7cd3e521bdaf43d64736f6c63430007030033",
  "linkReferences": {},
  "deployedLinkReferences": {}
}