{
  "contractName": "Wager",
  "abi": [
    {
      "inputs": [
        {
          "internalType": "uint256",
          "name": "TotalGames",
          "type": "uint256"
        }
      ],
      "stateMutability": "nonpayable",
      "type": "constructor"
    },
    {
      "inputs": [],
      "name": "Chairperson",
      "outputs": [
        {
          "internalType": "address payable",
          "name": "",
          "type": "address"
        }
      ],
      "stateMutability": "view",
      "type": "function",
      "constant": true
    },
    {
      "inputs": [],
      "name": "Done",
      "outputs": [
        {
          "internalType": "bool",
          "name": "",
          "type": "bool"
        }
      ],
      "stateMutability": "view",
      "type": "function",
      "constant": true
    },
    {
      "inputs": [],
      "name": "GamePool",
      "outputs": [
        {
          "internalType": "uint256",
          "name": "",
          "type": "uint256"
        }
      ],
      "stateMutability": "view",
      "type": "function",
      "constant": true
    },
    {
      "inputs": [
        {
          "internalType": "uint256",
          "name": "",
          "type": "uint256"
        }
      ],
      "name": "Games",
      "outputs": [
        {
          "internalType": "uint256",
          "name": "result",
          "type": "uint256"
        }
      ],
      "stateMutability": "view",
      "type": "function",
      "constant": true
    },
    {
      "inputs": [],
      "name": "Started",
      "outputs": [
        {
          "internalType": "bool",
          "name": "",
          "type": "bool"
        }
      ],
      "stateMutability": "view",
      "type": "function",
      "constant": true
    },
    {
      "inputs": [],
      "name": "TotalPool",
      "outputs": [
        {
          "internalType": "uint256",
          "name": "",
          "type": "uint256"
        }
      ],
      "stateMutability": "view",
      "type": "function",
      "constant": true
    },
    {
      "inputs": [
        {
          "internalType": "uint256[]",
          "name": "votes",
          "type": "uint256[]"
        }
      ],
      "name": "placeBet",
      "outputs": [],
      "stateMutability": "payable",
      "type": "function",
      "payable": true
    },
    {
      "inputs": [],
      "name": "startGames",
      "outputs": [],
      "stateMutability": "nonpayable",
      "type": "function"
    },
    {
      "inputs": [
        {
          "internalType": "uint256[]",
          "name": "results",
          "type": "uint256[]"
        }
      ],
      "name": "inputResults",
      "outputs": [],
      "stateMutability": "nonpayable",
      "type": "function"
    },
    {
      "inputs": [],
      "name": "claimPrize",
      "outputs": [],
      "stateMutability": "nonpayable",
      "type": "function"
    },
    {
      "inputs": [],
      "name": "getBettor",
      "outputs": [
        {
          "components": [
            {
              "internalType": "uint256[]",
              "name": "votes",
              "type": "uint256[]"
            },
            {
              "internalType": "bool",
              "name": "voted",
              "type": "bool"
            },
            {
              "internalType": "bool",
              "name": "extracted",
              "type": "bool"
            }
          ],
          "internalType": "struct Wager.Bettor",
          "name": "",
          "type": "tuple"
        }
      ],
      "stateMutability": "view",
      "type": "function",
      "constant": true
    },
    {
      "inputs": [
        {
          "internalType": "uint256",
          "name": "i",
          "type": "uint256"
        }
      ],
      "name": "getGame",
      "outputs": [
        {
          "components": [
            {
              "internalType": "uint256[3]",
              "name": "votes",
              "type": "uint256[3]"
            },
            {
              "internalType": "uint256",
              "name": "result",
              "type": "uint256"
            }
          ],
          "internalType": "struct Wager.Game",
          "name": "",
          "type": "tuple"
        }
      ],
      "stateMutability": "view",
      "type": "function",
      "constant": true
    }
  ],
  "bytecode": "0x608060405260008060146101000a81548160ff02191690831515021790555060008060156101000a81548160ff021916908315150217905550600060015560006002553480156200004f57600080fd5b5060405162001e0e38038062001e0e8339818101604052810190620000759190620001fb565b336000806101000a81548173ffffffffffffffffffffffffffffffffffffffff021916908373ffffffffffffffffffffffffffffffffffffffff16021790555060005b818110156200013457620000cb6200013c565b6003819080600181540180825580915050600190039060005260206000209060040201600090919091909150600082015181600001906003620001109291906200015e565b506020820151816003015550505080806200012b9062000231565b915050620000b8565b5050620002c8565b604051806040016040528062000151620001a3565b8152602001600081525090565b826003810192821562000190579160200282015b828111156200018f57825182559160200191906001019062000172565b5b5090506200019f9190620001c5565b5090565b6040518060600160405280600390602082028036833780820191505090505090565b5b80821115620001e0576000816000905550600101620001c6565b5090565b600081519050620001f581620002ae565b92915050565b6000602082840312156200020e57600080fd5b60006200021e84828501620001e4565b91505092915050565b6000819050919050565b60006200023e8262000227565b91507fffffffffffffffffffffffffffffffffffffffffffffffffffffffffffffffff8214156200027457620002736200027f565b5b600182019050919050565b7f4e487b7100000000000000000000000000000000000000000000000000000000600052601160045260246000fd5b620002b98162000227565b8114620002c557600080fd5b50565b611b3680620002d86000396000f3fe6080604052600436106100a65760003560e01c80639f9fb434116100645780639f9fb434146101a9578063a2f77bcc146101d4578063ae6c191214610211578063d8cea0ec1461023c578063e81de9f514610267578063f72ea9dc1461027e576100a6565b8062fa5d46146100ab5780631d856e4e146100d457806329d4f4c3146100ff578063570438771461013c57806370740ac9146101675780637bd486b31461017e575b600080fd5b3480156100b757600080fd5b506100d260048036038101906100cd9190611089565b61029a565b005b3480156100e057600080fd5b506100e96104e3565b6040516100f69190611816565b60405180910390f35b34801561010b57600080fd5b50610126600480360381019061012191906110ce565b6105c8565b6040516101339190611853565b60405180910390f35b34801561014857600080fd5b506101516105f6565b60405161015e9190611853565b60405180910390f35b34801561017357600080fd5b5061017c6105fc565b005b34801561018a57600080fd5b50610193610952565b6040516101a09190611853565b60405180910390f35b3480156101b557600080fd5b506101be610958565b6040516101cb919061165b565b60405180910390f35b3480156101e057600080fd5b506101fb60048036038101906101f691906110ce565b61096b565b6040516102089190611838565b60405180910390f35b34801561021d57600080fd5b50610226610a1c565b6040516102339190611640565b60405180910390f35b34801561024857600080fd5b50610251610a40565b60405161025e919061165b565b60405180910390f35b34801561027357600080fd5b5061027c610a53565b005b61029860048036038101906102939190611089565b610bb7565b005b60038054905082829050146102e4576040517f08c379a00000000000000000000000000000000000000000000000000000000081526004016102db90611676565b60405180910390fd5b60008054906101000a900473ffffffffffffffffffffffffffffffffffffffff1673ffffffffffffffffffffffffffffffffffffffff163373ffffffffffffffffffffffffffffffffffffffff1614610372576040517f08c379a0000000000000000000000000000000000000000000000000000000008152600401610369906117d6565b60405180910390fd5b600060149054906101000a900460ff166103c1576040517f08c379a00000000000000000000000000000000000000000000000000000000081526004016103b890611796565b60405180910390fd5b600060159054906101000a900460ff1615610411576040517f08c379a0000000000000000000000000000000000000000000000000000000008152600401610408906117b6565b60405180910390fd5b6001600060156101000a81548160ff02191690831515021790555060005b6003805490508110156104de57828282818110610475577f4e487b7100000000000000000000000000000000000000000000000000000000600052603260045260246000fd5b90506020020135600382815481106104b6577f4e487b7100000000000000000000000000000000000000000000000000000000600052603260045260246000fd5b90600052602060002090600402016003018190555080806104d690611a42565b91505061042f565b505050565b6104eb610f59565b600460003373ffffffffffffffffffffffffffffffffffffffff1673ffffffffffffffffffffffffffffffffffffffff1681526020019081526020016000206040518060600160405290816000820180548060200260200160405190810160405280929190818152602001828054801561058457602002820191906000526020600020905b815481526020019060010190808311610570575b505050505081526020016001820160009054906101000a900460ff161515151581526020016001820160019054906101000a900460ff161515151581525050905090565b600381815481106105d857600080fd5b90600052602060002090600402016000915090508060030154905081565b60025481565b6000600460003373ffffffffffffffffffffffffffffffffffffffff1673ffffffffffffffffffffffffffffffffffffffff1681526020019081526020016000209050600060149054906101000a900460ff1661068e576040517f08c379a000000000000000000000000000000000000000000000000000000000815260040161068590611796565b60405180910390fd5b600060159054906101000a900460ff166106dd576040517f08c379a00000000000000000000000000000000000000000000000000000000081526004016106d490611756565b60405180910390fd5b8060010160009054906101000a900460ff1661072e576040517f08c379a000000000000000000000000000000000000000000000000000000000815260040161072590611716565b60405180910390fd5b8060010160019054906101000a900460ff1615610780576040517f08c379a000000000000000000000000000000000000000000000000000000000815260040161077790611736565b60405180910390fd5b6000805b6003805490508110156108e9576000600382815481106107cd577f4e487b7100000000000000000000000000000000000000000000000000000000600052603260045260246000fd5b906000526020600020906004020160030154905060006003838154811061081d577f4e487b7100000000000000000000000000000000000000000000000000000000600052603260045260246000fd5b90600052602060002090600402016000018260038110610866577f4e487b7100000000000000000000000000000000000000000000000000000000600052603260045260246000fd5b01549050818560000184815481106108a7577f4e487b7100000000000000000000000000000000000000000000000000000000600052603260045260246000fd5b906000526020600020015414156108d457806002546108c6919061193b565b846108d191906118e5565b93505b505080806108e190611a42565b915050610784565b5060018260010160016101000a81548160ff0219169083151502179055503373ffffffffffffffffffffffffffffffffffffffff166108fc829081150290604051600060405180830381858888f1935050505015801561094d573d6000803e3d6000fd5b505050565b60015481565b600060159054906101000a900460ff1681565b610973610f7e565b600382815481106109ad577f4e487b7100000000000000000000000000000000000000000000000000000000600052603260045260246000fd5b906000526020600020906004020160405180604001604052908160008201600380602002604051908101604052809291908260038015610a02576020028201915b8154815260200190600101908083116109ee575b505050505081526020016003820154815250509050919050565b60008054906101000a900473ffffffffffffffffffffffffffffffffffffffff1681565b600060149054906101000a900460ff1681565b60008054906101000a900473ffffffffffffffffffffffffffffffffffffffff1673ffffffffffffffffffffffffffffffffffffffff163373ffffffffffffffffffffffffffffffffffffffff1614610ae1576040517f08c379a0000000000000000000000000000000000000000000000000000000008152600401610ad8906117f6565b60405180910390fd5b600060149054906101000a900460ff1615610b31576040517f08c379a0000000000000000000000000000000000000000000000000000000008152600401610b28906116d6565b60405180910390fd5b600060159054906101000a900460ff1615610b81576040517f08c379a0000000000000000000000000000000000000000000000000000000008152600401610b7890611696565b60405180910390fd5b6001600060146101000a81548160ff021916908315150217905550600380549050600154610baf919061193b565b600281905550565b6000600460003373ffffffffffffffffffffffffffffffffffffffff1673ffffffffffffffffffffffffffffffffffffffff16815260200190815260200160002090506003805490508383905014610c44576040517f08c379a0000000000000000000000000000000000000000000000000000000008152600401610c3b90611676565b60405180910390fd5b60003411610c87576040517f08c379a0000000000000000000000000000000000000000000000000000000008152600401610c7e906116b6565b60405180910390fd5b8060010160009054906101000a900460ff1615610cd9576040517f08c379a0000000000000000000000000000000000000000000000000000000008152600401610cd0906116f6565b60405180910390fd5b600060149054906101000a900460ff1615610d29576040517f08c379a0000000000000000000000000000000000000000000000000000000008152600401610d20906116d6565b60405180910390fd5b600060159054906101000a900460ff1615610d79576040517f08c379a0000000000000000000000000000000000000000000000000000000008152600401610d7090611776565b60405180910390fd5b8282826000019190610d8c929190610f9e565b5060018160010160006101000a81548160ff02191690831515021790555060005b600380549050811015610ea65760038181548110610df4577f4e487b7100000000000000000000000000000000000000000000000000000000600052603260045260246000fd5b9060005260206000209060040201600001848483818110610e3e577f4e487b7100000000000000000000000000000000000000000000000000000000600052603260045260246000fd5b9050602002013560038110610e7c577f4e487b7100000000000000000000000000000000000000000000000000000000600052603260045260246000fd5b016000815480929190610e8e90611a42565b91905055508080610e9e90611a42565b915050610dad565b5060006127106101f4600154610ebc919061196c565b610ec6919061193b565b905060008054906101000a900473ffffffffffffffffffffffffffffffffffffffff1673ffffffffffffffffffffffffffffffffffffffff166108fc829081150290604051600060405180830381858888f19350505050158015610f2e573d6000803e3d6000fd5b508034610f3b91906119c6565b60016000828254610f4c91906118e5565b9250508190555050505050565b6040518060600160405280606081526020016000151581526020016000151581525090565b6040518060400160405280610f91610feb565b8152602001600081525090565b828054828255906000526020600020908101928215610fda579160200282015b82811115610fd9578235825591602001919060010190610fbe565b5b509050610fe7919061100d565b5090565b6040518060600160405280600390602082028036833780820191505090505090565b5b8082111561102657600081600090555060010161100e565b5090565b60008083601f84011261103c57600080fd5b8235905067ffffffffffffffff81111561105557600080fd5b60208301915083602082028301111561106d57600080fd5b9250929050565b60008135905061108381611ae9565b92915050565b6000806020838503121561109c57600080fd5b600083013567ffffffffffffffff8111156110b657600080fd5b6110c28582860161102a565b92509250509250929050565b6000602082840312156110e057600080fd5b60006110ee84828501611074565b91505092915050565b60006111038383611622565b60208301905092915050565b611118816119fa565b82525050565b61112781611888565b61113181846118b8565b925061113c8261186e565b8060005b8381101561116d57815161115487826110f7565b965061115f8361189e565b925050600181019050611140565b505050505050565b600061118082611893565b61118a81856118c3565b935061119583611878565b8060005b838110156111c65781516111ad88826110f7565b97506111b8836118ab565b925050600181019050611199565b5085935050505092915050565b6111dc81611a0c565b82525050565b6111eb81611a0c565b82525050565b60006111fe600e836118d4565b91507f496e76616c6964206c656e6774680000000000000000000000000000000000006000830152602082019050919050565b600061123e601a836118d4565b91507f5468652067616d65732061726520616c726561647920646f6e650000000000006000830152602082019050919050565b600061127e600d836118d4565b91507f4e6f2073656173207261746f6e000000000000000000000000000000000000006000830152602082019050919050565b60006112be601e836118d4565b91507f5468652067616d6573206861766520616c7265616479207374617274656400006000830152602082019050919050565b60006112fe6019836118d4565b91507f544f444f3a20566f7465206d6f7265207468616e206f6e6365000000000000006000830152602082019050919050565b600061133e6016836118d4565b91507f596f75206469646e2774207061727469636970617465000000000000000000006000830152602082019050919050565b600061137e6018836118d4565b91507f596f7527766520616c72656164792065787472616374656400000000000000006000830152602082019050919050565b60006113be6019836118d4565b91507f5468652067616d6573206172656e277420646f6e6520796574000000000000006000830152602082019050919050565b60006113fe6035836118d4565b91507f5468652067616d65732061726520616c726561647920646f6e652c20796f752060008301527f73686f756c64207472792065787472616374696e6700000000000000000000006020830152604082019050919050565b6000611464601d836118d4565b91507f5468652067616d657320686176656e27742073746172746564207965740000006000830152602082019050919050565b60006114a46020836118d4565b91507f596f7527766520616c726561647920696e7075742074686520726573756c74736000830152602082019050919050565b60006114e46026836118d4565b91507f4f6e6c7920746865206368616972706572736f6e2063616e20696e707574207260008301527f6573756c747300000000000000000000000000000000000000000000000000006020830152604082019050919050565b600061154a6031836118d4565b91507f4f6e6c7920746865206368616972706572736f6e2063616e207365742074686560008301527f2067616d657320617320737461727465640000000000000000000000000000006020830152604082019050919050565b600060608301600083015184820360008601526115c08282611175565b91505060208301516115d560208601826111d3565b5060408301516115e860408601826111d3565b508091505092915050565b608082016000820151611609600085018261111e565b50602082015161161c6060850182611622565b50505050565b61162b81611a38565b82525050565b61163a81611a38565b82525050565b6000602082019050611655600083018461110f565b92915050565b600060208201905061167060008301846111e2565b92915050565b6000602082019050818103600083015261168f816111f1565b9050919050565b600060208201905081810360008301526116af81611231565b9050919050565b600060208201905081810360008301526116cf81611271565b9050919050565b600060208201905081810360008301526116ef816112b1565b9050919050565b6000602082019050818103600083015261170f816112f1565b9050919050565b6000602082019050818103600083015261172f81611331565b9050919050565b6000602082019050818103600083015261174f81611371565b9050919050565b6000602082019050818103600083015261176f816113b1565b9050919050565b6000602082019050818103600083015261178f816113f1565b9050919050565b600060208201905081810360008301526117af81611457565b9050919050565b600060208201905081810360008301526117cf81611497565b9050919050565b600060208201905081810360008301526117ef816114d7565b9050919050565b6000602082019050818103600083015261180f8161153d565b9050919050565b6000602082019050818103600083015261183081846115a3565b905092915050565b600060808201905061184d60008301846115f3565b92915050565b60006020820190506118686000830184611631565b92915050565b6000819050919050565b6000819050602082019050919050565b600060039050919050565b600081519050919050565b6000602082019050919050565b6000602082019050919050565b600081905092915050565b600082825260208201905092915050565b600082825260208201905092915050565b60006118f082611a38565b91506118fb83611a38565b9250827fffffffffffffffffffffffffffffffffffffffffffffffffffffffffffffffff038211156119305761192f611a8b565b5b828201905092915050565b600061194682611a38565b915061195183611a38565b92508261196157611960611aba565b5b828204905092915050565b600061197782611a38565b915061198283611a38565b9250817fffffffffffffffffffffffffffffffffffffffffffffffffffffffffffffffff04831182151516156119bb576119ba611a8b565b5b828202905092915050565b60006119d182611a38565b91506119dc83611a38565b9250828210156119ef576119ee611a8b565b5b828203905092915050565b6000611a0582611a18565b9050919050565b60008115159050919050565b600073ffffffffffffffffffffffffffffffffffffffff82169050919050565b6000819050919050565b6000611a4d82611a38565b91507fffffffffffffffffffffffffffffffffffffffffffffffffffffffffffffffff821415611a8057611a7f611a8b565b5b600182019050919050565b7f4e487b7100000000000000000000000000000000000000000000000000000000600052601160045260246000fd5b7f4e487b7100000000000000000000000000000000000000000000000000000000600052601260045260246000fd5b611af281611a38565b8114611afd57600080fd5b5056fea2646970667358221220944f8361660193b8385b978fd2f7c7823c60c4b37c3b8fa55229a34d56dac09464736f6c63430008000033",
  "immutableReferences": {},
  "source": "// ADAPTED FROM: https://docs.soliditylang.org/en/v0.8.4/solidity-by-example.html\n// SPDX-License-Identifier: GPL-3.0\npragma solidity >=0.7.0 <0.9.0;\n/// @title Voting with delegation.\n\ncontract Wager {\n\taddress payable public Chairperson;\n\t\n\tbool public Started = false; //U: If the games have started \n\tbool public Done = false; //U: If the game has already been played, and money can be extracted\n\n\tuint256 public TotalPool = 0; //U: Total pool of money\n\tuint256 public GamePool = 0; //U: Equal parts of the total pool for each game \n\n\tstruct Game {\n\t\tuint[3] votes; //U: Votes for each result (0 local, 1 away, 2 tie)\n\t\tuint result; //U: Result for the game (0 local, 1 away, 2 tie)\n\t}\n\tGame[] public Games; //U: List of games with the number of votes for each result\n\n\tstruct Bettor {\n\t\tuint[] votes; //U: Predicted result for the games (0 local, 1 away, 2 tie)\n\t\tbool voted; //TODO: Let them vote more than once\n\t\tbool extracted; //U: Only let them extract once\n\t}\n\tmapping(address => Bettor) bettors;\n\n\tconstructor(uint TotalGames) {\n\t\tChairperson = payable(msg.sender);\n\n\t\tfor (uint i = 0; i < TotalGames; i++) { //A: Fill the Games array TODO: There's got to be a faster way\n\t\t\tGame memory game;\n\t\t\tGames.push(game);\n\t\t}\n\t}\n\t\n\tfunction placeBet(uint[] calldata votes) public payable { //U: Place bets\n\t\tBettor storage bettor = bettors[msg.sender];\n\n\t\trequire(votes.length == Games.length, \"Invalid length\");\n\t\trequire(msg.value > 0, \"No seas raton\"); //TODO: Set minimum price\n\t\trequire(!bettor.voted, \"TODO: Vote more than once\");\n\t\trequire(!Started, \"The games have already started\");\n\t\trequire(!Done, \"The games are already done, you should try extracting\");\n\n\t\tbettor.votes = votes;\n\t\tbettor.voted = true;\n\n\t\tfor (uint i = 0; i < Games.length; i++) {\n\t\t\tGames[i].votes[votes[i]]++;\n\t\t}\n\n\t\tuint256 forChair = TotalPool * 500 / 10000; //A: 5% for the chairperson\n\t\tChairperson.transfer(forChair);\n\n\t\tTotalPool += msg.value - forChair;\n\t}\n\n\tfunction startGames() public { //U: Marks the games a started TODO: Automatize with a date\n\t\trequire(msg.sender == Chairperson, \"Only the chairperson can set the games as started\");\n\t\trequire(!Started, \"The games have already started\");\n\t\trequire(!Done, \"The games are already done\");\n\n\t\tStarted = true;\n\t\tGamePool = TotalPool / (uint256(Games.length));\n\t}\n\n\tfunction inputResults(uint[] calldata results) public { //U: Input the results and allow winners to extract their money\n\t\trequire(results.length == Games.length, \"Invalid length\");\n\t\trequire(msg.sender == Chairperson, \"Only the chairperson can input results\");\n\t\trequire(Started, \"The games haven't started yet\"); //TODO: Should I be checking for this?\n\t\trequire(!Done, \"You've already input the results\");\n\n\t\tDone = true;\n\n\t\tfor (uint i = 0; i < Games.length; i++) {\n\t\t\tGames[i].result = results[i];\n\t\t}\n\t}\n\n\tfunction claimPrize() public { //U: Let the winners extract their prize\n\t\tBettor storage bettor = bettors[msg.sender];\n\t\t\n\t\trequire(Started, \"The games haven't started yet\"); //TODO: Should I be checking for this?\n\t\trequire(Done, \"The games aren't done yet\");\n\t\trequire(bettor.voted, \"You didn't participate\");\n\t\trequire(!bettor.extracted, \"You've already extracted\");\n\n\t\tuint256 prize = 0;\n\t\tfor (uint i = 0; i < Games.length; i++) {\n\t\t\tuint result = Games[i].result;\n\t\t\tuint256 otherVotes = Games[i].votes[result];\n\t\t\tif (bettor.votes[i] == result) { //A: They got this one right\n\t\t\t\tprize += GamePool / otherVotes; //A: 1/guesses for this result\n\t\t\t\t//A: It's not dividing by zero because AT LEAST this person voted for this result\n\t\t\t}\n\t\t}\n\n\t\tbettor.extracted = true; //A: Set it before transfering so that they can't send a request again\n\t\tpayable(msg.sender).transfer(prize);\n\t}\n\n\tfunction getBettor() public view returns (Bettor memory) { //U: Tells you if you can vote\n\t\t//Bettor storage bettor = bettors[msg.sender];\n\t\treturn bettors[msg.sender];\n\t}\n\n\tfunction getGame(uint i) public view returns (Game memory) {\n\t\treturn Games[i];\n\t}\n}\n",
  "sourcePath": "/home/galileo/hdd/Documents/devel/work/crypto/solidity/contracts/Wager.sol",
  "compiler": {
    "name": "solc",
    "version": "0.8.0+commit.c7dfd78e.Emscripten.clang"
  },
  "schemaVersion": "3.4.2",
  "updatedAt": "2021-09-02T18:37:49.076Z",
  "networkType": "ethereum",
  "devdoc": {
    "kind": "dev",
    "methods": {},
    "title": "Voting with delegation.",
    "version": 1
  },
  "userdoc": {
    "kind": "user",
    "methods": {},
    "version": 1
  }
}