{
  "contractName": "Wager",
  "abi": [
    {
      "inputs": [
        {
          "internalType": "uint256",
          "name": "TotalGames",
          "type": "uint256"
        }
      ],
      "stateMutability": "nonpayable",
      "type": "constructor"
    },
    {
      "inputs": [],
      "name": "Chairperson",
      "outputs": [
        {
          "internalType": "address payable",
          "name": "",
          "type": "address"
        }
      ],
      "stateMutability": "view",
      "type": "function",
      "constant": true
    },
    {
      "inputs": [],
      "name": "Done",
      "outputs": [
        {
          "internalType": "bool",
          "name": "",
          "type": "bool"
        }
      ],
      "stateMutability": "view",
      "type": "function",
      "constant": true
    },
    {
      "inputs": [],
      "name": "GamePool",
      "outputs": [
        {
          "internalType": "uint256",
          "name": "",
          "type": "uint256"
        }
      ],
      "stateMutability": "view",
      "type": "function",
      "constant": true
    },
    {
      "inputs": [
        {
          "internalType": "uint256",
          "name": "",
          "type": "uint256"
        }
      ],
      "name": "Games",
      "outputs": [
        {
          "internalType": "uint256",
          "name": "result",
          "type": "uint256"
        }
      ],
      "stateMutability": "view",
      "type": "function",
      "constant": true
    },
    {
      "inputs": [],
      "name": "Started",
      "outputs": [
        {
          "internalType": "bool",
          "name": "",
          "type": "bool"
        }
      ],
      "stateMutability": "view",
      "type": "function",
      "constant": true
    },
    {
      "inputs": [],
      "name": "TotalPool",
      "outputs": [
        {
          "internalType": "uint256",
          "name": "",
          "type": "uint256"
        }
      ],
      "stateMutability": "view",
      "type": "function",
      "constant": true
    },
    {
      "inputs": [
        {
          "internalType": "uint256[]",
          "name": "votes",
          "type": "uint256[]"
        }
      ],
      "name": "placeBet",
      "outputs": [],
      "stateMutability": "payable",
      "type": "function",
      "payable": true
    },
    {
      "inputs": [],
      "name": "startGames",
      "outputs": [],
      "stateMutability": "nonpayable",
      "type": "function"
    },
    {
      "inputs": [
        {
          "internalType": "uint256[]",
          "name": "results",
          "type": "uint256[]"
        }
      ],
      "name": "inputResults",
      "outputs": [],
      "stateMutability": "nonpayable",
      "type": "function"
    },
    {
      "inputs": [],
      "name": "claimPrize",
      "outputs": [],
      "stateMutability": "nonpayable",
      "type": "function"
    },
    {
      "inputs": [],
      "name": "getBettor",
      "outputs": [
        {
          "components": [
            {
              "internalType": "uint256[]",
              "name": "votes",
              "type": "uint256[]"
            },
            {
              "internalType": "bool",
              "name": "voted",
              "type": "bool"
            },
            {
              "internalType": "bool",
              "name": "extracted",
              "type": "bool"
            }
          ],
          "internalType": "struct Wager.Bettor",
          "name": "",
          "type": "tuple"
        }
      ],
      "stateMutability": "view",
      "type": "function",
      "constant": true
    }
  ],
  "bytecode": "0x608060405260008060146101000a81548160ff02191690831515021790555060008060156101000a81548160ff021916908315150217905550600060015560006002553480156200004f57600080fd5b5060405162001c0538038062001c058339818101604052810190620000759190620001fb565b336000806101000a81548173ffffffffffffffffffffffffffffffffffffffff021916908373ffffffffffffffffffffffffffffffffffffffff16021790555060005b818110156200013457620000cb6200013c565b6003819080600181540180825580915050600190039060005260206000209060040201600090919091909150600082015181600001906003620001109291906200015e565b506020820151816003015550505080806200012b9062000231565b915050620000b8565b5050620002c8565b604051806040016040528062000151620001a3565b8152602001600081525090565b826003810192821562000190579160200282015b828111156200018f57825182559160200191906001019062000172565b5b5090506200019f9190620001c5565b5090565b6040518060600160405280600390602082028036833780820191505090505090565b5b80821115620001e0576000816000905550600101620001c6565b5090565b600081519050620001f581620002ae565b92915050565b6000602082840312156200020e57600080fd5b60006200021e84828501620001e4565b91505092915050565b6000819050919050565b60006200023e8262000227565b91507fffffffffffffffffffffffffffffffffffffffffffffffffffffffffffffffff8214156200027457620002736200027f565b5b600182019050919050565b7f4e487b7100000000000000000000000000000000000000000000000000000000600052601160045260246000fd5b620002b98162000227565b8114620002c557600080fd5b50565b61192d80620002d86000396000f3fe60806040526004361061009b5760003560e01c80637bd486b3116100645780637bd486b3146101735780639f9fb4341461019e578063ae6c1912146101c9578063d8cea0ec146101f4578063e81de9f51461021f578063f72ea9dc146102365761009b565b8062fa5d46146100a05780631d856e4e146100c957806329d4f4c3146100f4578063570438771461013157806370740ac91461015c575b600080fd5b3480156100ac57600080fd5b506100c760048036038101906100c29190610f4e565b610252565b005b3480156100d557600080fd5b506100de61049b565b6040516100eb9190611655565b60405180910390f35b34801561010057600080fd5b5061011b60048036038101906101169190610f93565b610580565b6040516101289190611677565b60405180910390f35b34801561013d57600080fd5b506101466105ae565b6040516101539190611677565b60405180910390f35b34801561016857600080fd5b506101716105b4565b005b34801561017f57600080fd5b5061018861090a565b6040516101959190611677565b60405180910390f35b3480156101aa57600080fd5b506101b3610910565b6040516101c0919061149a565b60405180910390f35b3480156101d557600080fd5b506101de610923565b6040516101eb919061147f565b60405180910390f35b34801561020057600080fd5b50610209610947565b604051610216919061149a565b60405180910390f35b34801561022b57600080fd5b5061023461095a565b005b610250600480360381019061024b9190610f4e565b610abe565b005b600380549050828290501461029c576040517f08c379a0000000000000000000000000000000000000000000000000000000008152600401610293906114b5565b60405180910390fd5b60008054906101000a900473ffffffffffffffffffffffffffffffffffffffff1673ffffffffffffffffffffffffffffffffffffffff163373ffffffffffffffffffffffffffffffffffffffff161461032a576040517f08c379a000000000000000000000000000000000000000000000000000000000815260040161032190611615565b60405180910390fd5b600060149054906101000a900460ff16610379576040517f08c379a0000000000000000000000000000000000000000000000000000000008152600401610370906115d5565b60405180910390fd5b600060159054906101000a900460ff16156103c9576040517f08c379a00000000000000000000000000000000000000000000000000000000081526004016103c0906115f5565b60405180910390fd5b6001600060156101000a81548160ff02191690831515021790555060005b6003805490508110156104965782828281811061042d577f4e487b7100000000000000000000000000000000000000000000000000000000600052603260045260246000fd5b905060200201356003828154811061046e577f4e487b7100000000000000000000000000000000000000000000000000000000600052603260045260246000fd5b906000526020600020906004020160030181905550808061048e90611839565b9150506103e7565b505050565b6104a3610e60565b600460003373ffffffffffffffffffffffffffffffffffffffff1673ffffffffffffffffffffffffffffffffffffffff1681526020019081526020016000206040518060600160405290816000820180548060200260200160405190810160405280929190818152602001828054801561053c57602002820191906000526020600020905b815481526020019060010190808311610528575b505050505081526020016001820160009054906101000a900460ff161515151581526020016001820160019054906101000a900460ff161515151581525050905090565b6003818154811061059057600080fd5b90600052602060002090600402016000915090508060030154905081565b60025481565b6000600460003373ffffffffffffffffffffffffffffffffffffffff1673ffffffffffffffffffffffffffffffffffffffff1681526020019081526020016000209050600060149054906101000a900460ff16610646576040517f08c379a000000000000000000000000000000000000000000000000000000000815260040161063d906115d5565b60405180910390fd5b600060159054906101000a900460ff16610695576040517f08c379a000000000000000000000000000000000000000000000000000000000815260040161068c90611595565b60405180910390fd5b8060010160009054906101000a900460ff166106e6576040517f08c379a00000000000000000000000000000000000000000000000000000000081526004016106dd90611555565b60405180910390fd5b8060010160019054906101000a900460ff1615610738576040517f08c379a000000000000000000000000000000000000000000000000000000000815260040161072f90611575565b60405180910390fd5b6000805b6003805490508110156108a157600060038281548110610785577f4e487b7100000000000000000000000000000000000000000000000000000000600052603260045260246000fd5b90600052602060002090600402016003015490506000600383815481106107d5577f4e487b7100000000000000000000000000000000000000000000000000000000600052603260045260246000fd5b9060005260206000209060040201600001826003811061081e577f4e487b7100000000000000000000000000000000000000000000000000000000600052603260045260246000fd5b015490508185600001848154811061085f577f4e487b7100000000000000000000000000000000000000000000000000000000600052603260045260246000fd5b9060005260206000200154141561088c578060025461087e9190611732565b8461088991906116dc565b93505b5050808061089990611839565b91505061073c565b5060018260010160016101000a81548160ff0219169083151502179055503373ffffffffffffffffffffffffffffffffffffffff166108fc829081150290604051600060405180830381858888f19350505050158015610905573d6000803e3d6000fd5b505050565b60015481565b600060159054906101000a900460ff1681565b60008054906101000a900473ffffffffffffffffffffffffffffffffffffffff1681565b600060149054906101000a900460ff1681565b60008054906101000a900473ffffffffffffffffffffffffffffffffffffffff1673ffffffffffffffffffffffffffffffffffffffff163373ffffffffffffffffffffffffffffffffffffffff16146109e8576040517f08c379a00000000000000000000000000000000000000000000000000000000081526004016109df90611635565b60405180910390fd5b600060149054906101000a900460ff1615610a38576040517f08c379a0000000000000000000000000000000000000000000000000000000008152600401610a2f90611515565b60405180910390fd5b600060159054906101000a900460ff1615610a88576040517f08c379a0000000000000000000000000000000000000000000000000000000008152600401610a7f906114d5565b60405180910390fd5b6001600060146101000a81548160ff021916908315150217905550600380549050600154610ab69190611732565b600281905550565b6000600460003373ffffffffffffffffffffffffffffffffffffffff1673ffffffffffffffffffffffffffffffffffffffff16815260200190815260200160002090506003805490508383905014610b4b576040517f08c379a0000000000000000000000000000000000000000000000000000000008152600401610b42906114b5565b60405180910390fd5b60003411610b8e576040517f08c379a0000000000000000000000000000000000000000000000000000000008152600401610b85906114f5565b60405180910390fd5b8060010160009054906101000a900460ff1615610be0576040517f08c379a0000000000000000000000000000000000000000000000000000000008152600401610bd790611535565b60405180910390fd5b600060149054906101000a900460ff1615610c30576040517f08c379a0000000000000000000000000000000000000000000000000000000008152600401610c2790611515565b60405180910390fd5b600060159054906101000a900460ff1615610c80576040517f08c379a0000000000000000000000000000000000000000000000000000000008152600401610c77906115b5565b60405180910390fd5b8282826000019190610c93929190610e85565b5060018160010160006101000a81548160ff02191690831515021790555060005b600380549050811015610dad5760038181548110610cfb577f4e487b7100000000000000000000000000000000000000000000000000000000600052603260045260246000fd5b9060005260206000209060040201600001848483818110610d45577f4e487b7100000000000000000000000000000000000000000000000000000000600052603260045260246000fd5b9050602002013560038110610d83577f4e487b7100000000000000000000000000000000000000000000000000000000600052603260045260246000fd5b016000815480929190610d9590611839565b91905055508080610da590611839565b915050610cb4565b5060006127106101f4600154610dc39190611763565b610dcd9190611732565b905060008054906101000a900473ffffffffffffffffffffffffffffffffffffffff1673ffffffffffffffffffffffffffffffffffffffff166108fc829081150290604051600060405180830381858888f19350505050158015610e35573d6000803e3d6000fd5b508034610e4291906117bd565b60016000828254610e5391906116dc565b9250508190555050505050565b6040518060600160405280606081526020016000151581526020016000151581525090565b828054828255906000526020600020908101928215610ec1579160200282015b82811115610ec0578235825591602001919060010190610ea5565b5b509050610ece9190610ed2565b5090565b5b80821115610eeb576000816000905550600101610ed3565b5090565b60008083601f840112610f0157600080fd5b8235905067ffffffffffffffff811115610f1a57600080fd5b602083019150836020820283011115610f3257600080fd5b9250929050565b600081359050610f48816118e0565b92915050565b60008060208385031215610f6157600080fd5b600083013567ffffffffffffffff811115610f7b57600080fd5b610f8785828601610eef565b92509250509250929050565b600060208284031215610fa557600080fd5b6000610fb384828501610f39565b91505092915050565b6000610fc88383611461565b60208301905092915050565b610fdd816117f1565b82525050565b6000610fee826116a2565b610ff881856116ba565b935061100383611692565b8060005b8381101561103457815161101b8882610fbc565b9750611026836116ad565b925050600181019050611007565b5085935050505092915050565b61104a81611803565b82525050565b61105981611803565b82525050565b600061106c600e836116cb565b91507f496e76616c6964206c656e6774680000000000000000000000000000000000006000830152602082019050919050565b60006110ac601a836116cb565b91507f5468652067616d65732061726520616c726561647920646f6e650000000000006000830152602082019050919050565b60006110ec600d836116cb565b91507f4e6f2073656173207261746f6e000000000000000000000000000000000000006000830152602082019050919050565b600061112c601e836116cb565b91507f5468652067616d6573206861766520616c7265616479207374617274656400006000830152602082019050919050565b600061116c6019836116cb565b91507f544f444f3a20566f7465206d6f7265207468616e206f6e6365000000000000006000830152602082019050919050565b60006111ac6016836116cb565b91507f596f75206469646e2774207061727469636970617465000000000000000000006000830152602082019050919050565b60006111ec6018836116cb565b91507f596f7527766520616c72656164792065787472616374656400000000000000006000830152602082019050919050565b600061122c6019836116cb565b91507f5468652067616d6573206172656e277420646f6e6520796574000000000000006000830152602082019050919050565b600061126c6035836116cb565b91507f5468652067616d65732061726520616c726561647920646f6e652c20796f752060008301527f73686f756c64207472792065787472616374696e6700000000000000000000006020830152604082019050919050565b60006112d2601d836116cb565b91507f5468652067616d657320686176656e27742073746172746564207965740000006000830152602082019050919050565b60006113126020836116cb565b91507f596f7527766520616c726561647920696e7075742074686520726573756c74736000830152602082019050919050565b60006113526026836116cb565b91507f4f6e6c7920746865206368616972706572736f6e2063616e20696e707574207260008301527f6573756c747300000000000000000000000000000000000000000000000000006020830152604082019050919050565b60006113b86031836116cb565b91507f4f6e6c7920746865206368616972706572736f6e2063616e207365742074686560008301527f2067616d657320617320737461727465640000000000000000000000000000006020830152604082019050919050565b6000606083016000830151848203600086015261142e8282610fe3565b91505060208301516114436020860182611041565b5060408301516114566040860182611041565b508091505092915050565b61146a8161182f565b82525050565b6114798161182f565b82525050565b60006020820190506114946000830184610fd4565b92915050565b60006020820190506114af6000830184611050565b92915050565b600060208201905081810360008301526114ce8161105f565b9050919050565b600060208201905081810360008301526114ee8161109f565b9050919050565b6000602082019050818103600083015261150e816110df565b9050919050565b6000602082019050818103600083015261152e8161111f565b9050919050565b6000602082019050818103600083015261154e8161115f565b9050919050565b6000602082019050818103600083015261156e8161119f565b9050919050565b6000602082019050818103600083015261158e816111df565b9050919050565b600060208201905081810360008301526115ae8161121f565b9050919050565b600060208201905081810360008301526115ce8161125f565b9050919050565b600060208201905081810360008301526115ee816112c5565b9050919050565b6000602082019050818103600083015261160e81611305565b9050919050565b6000602082019050818103600083015261162e81611345565b9050919050565b6000602082019050818103600083015261164e816113ab565b9050919050565b6000602082019050818103600083015261166f8184611411565b905092915050565b600060208201905061168c6000830184611470565b92915050565b6000819050602082019050919050565b600081519050919050565b6000602082019050919050565b600082825260208201905092915050565b600082825260208201905092915050565b60006116e78261182f565b91506116f28361182f565b9250827fffffffffffffffffffffffffffffffffffffffffffffffffffffffffffffffff0382111561172757611726611882565b5b828201905092915050565b600061173d8261182f565b91506117488361182f565b925082611758576117576118b1565b5b828204905092915050565b600061176e8261182f565b91506117798361182f565b9250817fffffffffffffffffffffffffffffffffffffffffffffffffffffffffffffffff04831182151516156117b2576117b1611882565b5b828202905092915050565b60006117c88261182f565b91506117d38361182f565b9250828210156117e6576117e5611882565b5b828203905092915050565b60006117fc8261180f565b9050919050565b60008115159050919050565b600073ffffffffffffffffffffffffffffffffffffffff82169050919050565b6000819050919050565b60006118448261182f565b91507fffffffffffffffffffffffffffffffffffffffffffffffffffffffffffffffff82141561187757611876611882565b5b600182019050919050565b7f4e487b7100000000000000000000000000000000000000000000000000000000600052601160045260246000fd5b7f4e487b7100000000000000000000000000000000000000000000000000000000600052601260045260246000fd5b6118e98161182f565b81146118f457600080fd5b5056fea26469706673582212209c9711edb9e59daef0478a153af4b2818a1f7ecd5d8941300cea9e8715eb134964736f6c63430008000033",
  "immutableReferences": {},
  "source": "// ADAPTED FROM: https://docs.soliditylang.org/en/v0.8.4/solidity-by-example.html\n// SPDX-License-Identifier: GPL-3.0\npragma solidity >=0.7.0 <0.9.0;\n/// @title Voting with delegation.\n\ncontract Wager {\n\taddress payable public Chairperson;\n\t\n\tbool public Started = false; //U: If the games have started \n\tbool public Done = false; //U: If the game has already been played, and money can be extracted\n\n\tuint256 public TotalPool = 0; //U: Total pool of money\n\tuint256 public GamePool = 0; //U: Equal parts of the total pool for each game \n\n\tstruct Game {\n\t\tuint[3] votes; //U: Votes for each result (0 local, 1 away, 2 tie)\n\t\tuint result; //U: Result for the game (0 local, 1 away, 2 tie)\n\t}\n\tGame[] public Games; //U: List of games with the number of votes for each result\n\n\tstruct Bettor {\n\t\tuint[] votes; //U: Predicted result for the games (0 local, 1 away, 2 tie)\n\t\tbool voted; //TODO: Let them vote more than once\n\t\tbool extracted; //U: Only let them extract once\n\t}\n\tmapping(address => Bettor) bettors;\n\n\tconstructor(uint TotalGames) {\n\t\tChairperson = payable(msg.sender);\n\n\t\tfor (uint i = 0; i < TotalGames; i++) { //A: Fill the Games array TODO: There's got to be a faster way\n\t\t\tGame memory game;\n\t\t\tGames.push(game);\n\t\t}\n\t}\n\t\n\tfunction placeBet(uint[] calldata votes) public payable { //U: Place bets\n\t\tBettor storage bettor = bettors[msg.sender];\n\n\t\trequire(votes.length == Games.length, \"Invalid length\");\n\t\trequire(msg.value > 0, \"No seas raton\"); //TODO: Set minimum price\n\t\trequire(!bettor.voted, \"TODO: Vote more than once\");\n\t\trequire(!Started, \"The games have already started\");\n\t\trequire(!Done, \"The games are already done, you should try extracting\");\n\n\t\tbettor.votes = votes;\n\t\tbettor.voted = true;\n\n\t\tfor (uint i = 0; i < Games.length; i++) {\n\t\t\tGames[i].votes[votes[i]]++;\n\t\t}\n\n\t\tuint256 forChair = TotalPool * 500 / 10000; //A: 5% for the chairperson\n\t\tChairperson.transfer(forChair);\n\n\t\tTotalPool += msg.value - forChair;\n\t}\n\n\tfunction startGames() public { //U: Marks the games a started TODO: Automatize with a date\n\t\trequire(msg.sender == Chairperson, \"Only the chairperson can set the games as started\");\n\t\trequire(!Started, \"The games have already started\");\n\t\trequire(!Done, \"The games are already done\");\n\n\t\tStarted = true;\n\t\tGamePool = TotalPool / (uint256(Games.length));\n\t}\n\n\tfunction inputResults(uint[] calldata results) public { //U: Input the results and allow winners to extract their money\n\t\trequire(results.length == Games.length, \"Invalid length\");\n\t\trequire(msg.sender == Chairperson, \"Only the chairperson can input results\");\n\t\trequire(Started, \"The games haven't started yet\"); //TODO: Should I be checking for this?\n\t\trequire(!Done, \"You've already input the results\");\n\n\t\tDone = true;\n\n\t\tfor (uint i = 0; i < Games.length; i++) {\n\t\t\tGames[i].result = results[i];\n\t\t}\n\t}\n\n\tfunction claimPrize() public { //U: Let the winners extract their prize\n\t\tBettor storage bettor = bettors[msg.sender];\n\t\t\n\t\trequire(Started, \"The games haven't started yet\"); //TODO: Should I be checking for this?\n\t\trequire(Done, \"The games aren't done yet\");\n\t\trequire(bettor.voted, \"You didn't participate\");\n\t\trequire(!bettor.extracted, \"You've already extracted\");\n\n\t\tuint256 prize = 0;\n\t\tfor (uint i = 0; i < Games.length; i++) {\n\t\t\tuint result = Games[i].result;\n\t\t\tuint256 otherVotes = Games[i].votes[result];\n\t\t\tif (bettor.votes[i] == result) { //A: They got this one right\n\t\t\t\tprize += GamePool / otherVotes; //A: 1/guesses for this result\n\t\t\t\t//A: It's not dividing by zero because AT LEAST this person voted for this result\n\t\t\t}\n\t\t}\n\n\t\tbettor.extracted = true; //A: Set it before transfering so that they can't send a request again\n\t\tpayable(msg.sender).transfer(prize);\n\t}\n\n\tfunction getBettor() public view returns (Bettor memory) { //U: Tells you if you can vote\n\t\t//Bettor storage bettor = bettors[msg.sender];\n\t\treturn bettors[msg.sender];\n\t}\n}\n",
  "sourcePath": "/home/galileo/hdd/Documents/devel/work/crypto/solidity/contracts/Wager.sol",
  "compiler": {
    "name": "solc",
    "version": "0.8.0+commit.c7dfd78e.Emscripten.clang"
  },
  "schemaVersion": "3.4.2",
  "updatedAt": "2021-09-01T23:37:13.981Z",
  "networkType": "ethereum",
  "devdoc": {
    "kind": "dev",
    "methods": {},
    "title": "Voting with delegation.",
    "version": 1
  },
  "userdoc": {
    "kind": "user",
    "methods": {},
    "version": 1
  }
}