{
  "contractName": "Wager",
  "abi": [
    {
      "inputs": [],
      "stateMutability": "nonpayable",
      "type": "constructor"
    },
    {
      "inputs": [],
      "name": "Chairperson",
      "outputs": [
        {
          "internalType": "address payable",
          "name": "",
          "type": "address"
        }
      ],
      "stateMutability": "view",
      "type": "function",
      "constant": true
    },
    {
      "inputs": [],
      "name": "Done",
      "outputs": [
        {
          "internalType": "bool",
          "name": "",
          "type": "bool"
        }
      ],
      "stateMutability": "view",
      "type": "function",
      "constant": true
    },
    {
      "inputs": [],
      "name": "Result",
      "outputs": [
        {
          "internalType": "uint256",
          "name": "",
          "type": "uint256"
        }
      ],
      "stateMutability": "view",
      "type": "function",
      "constant": true
    },
    {
      "inputs": [
        {
          "internalType": "uint256",
          "name": "",
          "type": "uint256"
        }
      ],
      "name": "ResultPool",
      "outputs": [
        {
          "internalType": "uint256",
          "name": "",
          "type": "uint256"
        }
      ],
      "stateMutability": "view",
      "type": "function",
      "constant": true
    },
    {
      "inputs": [],
      "name": "TotalPool",
      "outputs": [
        {
          "internalType": "uint256",
          "name": "",
          "type": "uint256"
        }
      ],
      "stateMutability": "view",
      "type": "function",
      "constant": true
    },
    {
      "inputs": [
        {
          "internalType": "uint256",
          "name": "vote",
          "type": "uint256"
        }
      ],
      "name": "placeBet",
      "outputs": [],
      "stateMutability": "payable",
      "type": "function",
      "payable": true
    },
    {
      "inputs": [
        {
          "internalType": "uint256",
          "name": "result",
          "type": "uint256"
        }
      ],
      "name": "inputResult",
      "outputs": [],
      "stateMutability": "nonpayable",
      "type": "function"
    },
    {
      "inputs": [],
      "name": "claimPrize",
      "outputs": [],
      "stateMutability": "nonpayable",
      "type": "function"
    }
  ],
  "bytecode": "0x608060405260006002556040518060600160405280600060ff168152602001600060ff168152602001600060ff1681525060039060036100409291906100ae565b506000600660006101000a81548160ff02191690831515021790555034801561006857600080fd5b50336000806101000a81548173ffffffffffffffffffffffffffffffffffffffff021916908373ffffffffffffffffffffffffffffffffffffffff160217905550610110565b82600381019282156100e2579160200282015b828111156100e1578251829060ff169055916020019190600101906100c1565b5b5090506100ef91906100f3565b5090565b5b8082111561010c5760008160009055506001016100f4565b5090565b610db78061011f6000396000f3fe60806040526004361061007b5760003560e01c80639f9fb4341161004e5780639f9fb4341461011b578063ae6c191214610146578063b745e31d14610171578063f4e5d5991461019a5761007b565b806310fe7c481461008057806323285b761461009c57806370740ac9146100d95780637bd486b3146100f0575b600080fd5b61009a60048036038101906100959190610785565b6101c5565b005b3480156100a857600080fd5b506100c360048036038101906100be9190610785565b6103ce565b6040516100d09190610b83565b60405180910390f35b3480156100e557600080fd5b506100ee6103e9565b005b3480156100fc57600080fd5b50610105610588565b6040516101129190610b83565b60405180910390f35b34801561012757600080fd5b5061013061058e565b60405161013d9190610a68565b60405180910390f35b34801561015257600080fd5b5061015b6105a1565b6040516101689190610a4d565b60405180910390f35b34801561017d57600080fd5b5061019860048036038101906101939190610785565b6105c5565b005b3480156101a657600080fd5b506101af61076a565b6040516101bc9190610b83565b60405180910390f35b6000600760003373ffffffffffffffffffffffffffffffffffffffff1673ffffffffffffffffffffffffffffffffffffffff16815260200190815260200160002090506000341161024b576040517f08c379a000000000000000000000000000000000000000000000000000000000815260040161024290610aa3565b60405180910390fd5b6003821061028e576040517f08c379a000000000000000000000000000000000000000000000000000000000815260040161028590610b03565b60405180910390fd5b8060020160009054906101000a900460ff16156102e0576040517f08c379a00000000000000000000000000000000000000000000000000000000081526004016102d790610ae3565b60405180910390fd5b600660009054906101000a900460ff1615610330576040517f08c379a000000000000000000000000000000000000000000000000000000000815260040161032790610a83565b60405180910390fd5b34816000018190555081816001018190555060018160020160006101000a81548160ff02191690831515021790555034600260008282546103719190610baf565b9250508190555034600383600381106103b3577f4e487b7100000000000000000000000000000000000000000000000000000000600052603260045260246000fd5b0160008282546103c39190610baf565b925050819055505050565b600381600381106103de57600080fd5b016000915090505481565b6000600760003373ffffffffffffffffffffffffffffffffffffffff1673ffffffffffffffffffffffffffffffffffffffff1681526020019081526020016000209050600660009054906101000a900460ff1661047b576040517f08c379a000000000000000000000000000000000000000000000000000000000815260040161047290610ac3565b60405180910390fd5b8060020160009054906101000a900460ff16801561049e57506001548160010154145b6104dd576040517f08c379a00000000000000000000000000000000000000000000000000000000081526004016104d490610b23565b60405180910390fd5b6000600382600101546003811061051d577f4e487b7100000000000000000000000000000000000000000000000000000000600052603260045260246000fd5b015482600001546002546105319190610c36565b61053b9190610c05565b90503373ffffffffffffffffffffffffffffffffffffffff166108fc829081150290604051600060405180830381858888f19350505050158015610583573d6000803e3d6000fd5b505050565b60025481565b600660009054906101000a900460ff1681565b60008054906101000a900473ffffffffffffffffffffffffffffffffffffffff1681565b60008054906101000a900473ffffffffffffffffffffffffffffffffffffffff1673ffffffffffffffffffffffffffffffffffffffff163373ffffffffffffffffffffffffffffffffffffffff1614610653576040517f08c379a000000000000000000000000000000000000000000000000000000000815260040161064a90610b63565b60405180910390fd5b600660009054906101000a900460ff16156106a3576040517f08c379a000000000000000000000000000000000000000000000000000000000815260040161069a90610b43565b60405180910390fd5b806001819055506001600660006101000a81548160ff02191690831515021790555060006127106101f46002546106da9190610c36565b6106e49190610c05565b905080600260008282546106f89190610c90565b9250508190555060008054906101000a900473ffffffffffffffffffffffffffffffffffffffff1673ffffffffffffffffffffffffffffffffffffffff166108fc829081150290604051600060405180830381858888f19350505050158015610765573d6000803e3d6000fd5b505050565b60015481565b60008135905061077f81610d6a565b92915050565b60006020828403121561079757600080fd5b60006107a584828501610770565b91505092915050565b6107b781610cc4565b82525050565b6107c681610cd6565b82525050565b60006107d9601883610b9e565b91507f5468652067616d6520697320616c726561647920646f6e6500000000000000006000830152602082019050919050565b6000610819600d83610b9e565b91507f4e6f2073656173207261746f6e000000000000000000000000000000000000006000830152602082019050919050565b6000610859602483610b9e565b91507f596f75206d757374207761697420756e74696c207468652067616d652069732060008301527f646f6e65000000000000000000000000000000000000000000000000000000006020830152604082019050919050565b60006108bf601983610b9e565b91507f544f444f3a20566f7465206d6f7265207468616e206f6e6365000000000000006000830152602082019050919050565b60006108ff602183610b9e565b91507f50726564696374656420726573756c74206f757473696465206f662072616e6760008301527f65000000000000000000000000000000000000000000000000000000000000006020830152604082019050919050565b6000610965601583610b9e565b91507f426574746572206c75636b206e6578742074696d6500000000000000000000006000830152602082019050919050565b60006109a5601d83610b9e565b91507f596f7527766520616c726561647920696e707574206120726573756c740000006000830152602082019050919050565b60006109e5602683610b9e565b91507f4f6e6c7920746865206368616972706572736f6e2063616e20696e707574207260008301527f6573756c747300000000000000000000000000000000000000000000000000006020830152604082019050919050565b610a4781610d02565b82525050565b6000602082019050610a6260008301846107ae565b92915050565b6000602082019050610a7d60008301846107bd565b92915050565b60006020820190508181036000830152610a9c816107cc565b9050919050565b60006020820190508181036000830152610abc8161080c565b9050919050565b60006020820190508181036000830152610adc8161084c565b9050919050565b60006020820190508181036000830152610afc816108b2565b9050919050565b60006020820190508181036000830152610b1c816108f2565b9050919050565b60006020820190508181036000830152610b3c81610958565b9050919050565b60006020820190508181036000830152610b5c81610998565b9050919050565b60006020820190508181036000830152610b7c816109d8565b9050919050565b6000602082019050610b986000830184610a3e565b92915050565b600082825260208201905092915050565b6000610bba82610d02565b9150610bc583610d02565b9250827fffffffffffffffffffffffffffffffffffffffffffffffffffffffffffffffff03821115610bfa57610bf9610d0c565b5b828201905092915050565b6000610c1082610d02565b9150610c1b83610d02565b925082610c2b57610c2a610d3b565b5b828204905092915050565b6000610c4182610d02565b9150610c4c83610d02565b9250817fffffffffffffffffffffffffffffffffffffffffffffffffffffffffffffffff0483118215151615610c8557610c84610d0c565b5b828202905092915050565b6000610c9b82610d02565b9150610ca683610d02565b925082821015610cb957610cb8610d0c565b5b828203905092915050565b6000610ccf82610ce2565b9050919050565b60008115159050919050565b600073ffffffffffffffffffffffffffffffffffffffff82169050919050565b6000819050919050565b7f4e487b7100000000000000000000000000000000000000000000000000000000600052601160045260246000fd5b7f4e487b7100000000000000000000000000000000000000000000000000000000600052601260045260246000fd5b610d7381610d02565b8114610d7e57600080fd5b5056fea264697066735822122032614fae11e82d07becfb11c85adb1a74c2e721e89bf1c9600ffdc3485a5971764736f6c63430008000033",
  "immutableReferences": {},
  "source": "// ADAPTED FROM: https://docs.soliditylang.org/en/v0.8.4/solidity-by-example.html\n// SPDX-License-Identifier: GPL-3.0\npragma solidity >=0.7.0 <0.9.0;\n/// @title Voting with delegation.\n\ncontract Wager {\n\taddress payable public Chairperson;\n\t\n\tuint public Result; //U: Result of the game (0 local, 1 away, 2 tie)\n\tuint256 public TotalPool = 0; //U: Total pool of money\n\tuint256[3] public ResultPool = [0, 0, 0]; //U: Pool of money for each possible result\n\tbool public Done = false; //U: If the game has already been played, and money can be extracted\n\n\tstruct Bettor {\n\t\tuint256 size; //U: Amount of money this person put in \n\t\tuint vote; //U: Predicted result for this game (0 local, 1 away, 2 tie)\n\t\tbool voted; //TODO: Let them vote more than once\n\t}\n\tmapping(address => Bettor) bettors;\n\n\tconstructor() {\n\t\tChairperson = payable(msg.sender);\n\t}\n\t\n\tfunction placeBet(uint vote) public payable { //U: Place a bet\n\t\tBettor storage bettor = bettors[msg.sender];\n\n\t\trequire(msg.value > 0, \"No seas raton\");\n\t\trequire(vote < 3, \"Predicted result outside of range\");\n\t\trequire(!bettor.voted, \"TODO: Vote more than once\");\n\t\trequire(!Done, \"The game is already done\");\n\n\t\tbettor.size = msg.value;\n\t\tbettor.vote = vote;\n\t\tbettor.voted = true;\n\n\t\tTotalPool += msg.value;\n\t\tResultPool[vote] += msg.value;\n\t}\n\n\tfunction inputResult(uint result) public { //U: Input a result and allow winners to extract their money\n\t\trequire(msg.sender == Chairperson, \"Only the chairperson can input results\");\n\t\trequire(!Done, \"You've already input a result\");\n\n\t\tResult = result;\n\t\tDone = true;\n\n\t\tuint256 forChair = TotalPool * 500 / 10000; //A: 5% for the chairperson\n\t\tTotalPool -= forChair; //A: Primero restar para evitar que chairperson vuelva a pedir la transferencia\n\t\tChairperson.transfer(forChair);\n\t}\n\n\tfunction claimPrize() public { //U: Let the winners extract their part\n\t\tBettor storage bettor = bettors[msg.sender];\n\t\t\n\t\trequire(Done, \"You must wait until the game is done\");\n\t\trequire(bettor.voted && (bettor.vote == Result), \"Better luck next time\");\n\n\t\tuint256 forWinner = TotalPool * bettor.size / ResultPool[bettor.vote]; //A: % of the pool based on how much they bet\n\t\tpayable(msg.sender).transfer(forWinner);\n\t}\n}\n",
  "sourcePath": "/home/galileo/hdd/Documents/devel/work/eth/project/contracts/Wager.sol",
  "compiler": {
    "name": "solc",
    "version": "0.8.0+commit.c7dfd78e.Emscripten.clang"
  },
  "schemaVersion": "3.4.2",
  "updatedAt": "2021-07-29T16:57:25.870Z",
  "networkType": "ethereum",
  "devdoc": {
    "kind": "dev",
    "methods": {},
    "title": "Voting with delegation.",
    "version": 1
  },
  "userdoc": {
    "kind": "user",
    "methods": {},
    "version": 1
  }
}