{
  "contractName": "Wager",
  "abi": [
    {
      "inputs": [
        {
          "internalType": "uint256",
          "name": "TotalGames",
          "type": "uint256"
        },
        {
          "internalType": "uint256",
          "name": "price",
          "type": "uint256"
        }
      ],
      "stateMutability": "nonpayable",
      "type": "constructor"
    },
    {
      "inputs": [],
      "name": "Chairperson",
      "outputs": [
        {
          "internalType": "address payable",
          "name": "",
          "type": "address"
        }
      ],
      "stateMutability": "view",
      "type": "function"
    },
    {
      "inputs": [],
      "name": "Done",
      "outputs": [
        {
          "internalType": "bool",
          "name": "",
          "type": "bool"
        }
      ],
      "stateMutability": "view",
      "type": "function"
    },
    {
      "inputs": [],
      "name": "GamePool",
      "outputs": [
        {
          "internalType": "uint256",
          "name": "",
          "type": "uint256"
        }
      ],
      "stateMutability": "view",
      "type": "function"
    },
    {
      "inputs": [
        {
          "internalType": "uint256",
          "name": "",
          "type": "uint256"
        }
      ],
      "name": "Games",
      "outputs": [
        {
          "internalType": "uint256",
          "name": "result",
          "type": "uint256"
        }
      ],
      "stateMutability": "view",
      "type": "function"
    },
    {
      "inputs": [],
      "name": "MinPrice",
      "outputs": [
        {
          "internalType": "uint256",
          "name": "",
          "type": "uint256"
        }
      ],
      "stateMutability": "view",
      "type": "function"
    },
    {
      "inputs": [],
      "name": "Started",
      "outputs": [
        {
          "internalType": "bool",
          "name": "",
          "type": "bool"
        }
      ],
      "stateMutability": "view",
      "type": "function"
    },
    {
      "inputs": [],
      "name": "TotalPool",
      "outputs": [
        {
          "internalType": "uint256",
          "name": "",
          "type": "uint256"
        }
      ],
      "stateMutability": "view",
      "type": "function"
    },
    {
      "inputs": [
        {
          "internalType": "uint256[]",
          "name": "votes",
          "type": "uint256[]"
        }
      ],
      "name": "placeBet",
      "outputs": [],
      "stateMutability": "payable",
      "type": "function"
    },
    {
      "inputs": [],
      "name": "startGames",
      "outputs": [],
      "stateMutability": "nonpayable",
      "type": "function"
    },
    {
      "inputs": [
        {
          "internalType": "uint256[]",
          "name": "results",
          "type": "uint256[]"
        }
      ],
      "name": "inputResults",
      "outputs": [],
      "stateMutability": "nonpayable",
      "type": "function"
    },
    {
      "inputs": [],
      "name": "claimPrize",
      "outputs": [],
      "stateMutability": "nonpayable",
      "type": "function"
    },
    {
      "inputs": [],
      "name": "getBettor",
      "outputs": [
        {
          "components": [
            {
              "internalType": "uint256[]",
              "name": "votes",
              "type": "uint256[]"
            },
            {
              "internalType": "bool",
              "name": "voted",
              "type": "bool"
            },
            {
              "internalType": "bool",
              "name": "extracted",
              "type": "bool"
            }
          ],
          "internalType": "struct Wager.Bettor",
          "name": "",
          "type": "tuple"
        }
      ],
      "stateMutability": "view",
      "type": "function"
    },
    {
      "inputs": [
        {
          "internalType": "uint256",
          "name": "i",
          "type": "uint256"
        }
      ],
      "name": "getGame",
      "outputs": [
        {
          "components": [
            {
              "internalType": "uint256[3]",
              "name": "votes",
              "type": "uint256[3]"
            },
            {
              "internalType": "uint256",
              "name": "result",
              "type": "uint256"
            }
          ],
          "internalType": "struct Wager.Game",
          "name": "",
          "type": "tuple"
        }
      ],
      "stateMutability": "view",
      "type": "function"
    }
  ],
  "bytecode": "0x608060405260008060146101000a81548160ff02191690831515021790555060008060156101000a81548160ff0219169083151502179055506000600155600060025560016003553480156200005457600080fd5b5060405162001e7c38038062001e7c83398181016040528101906200007a919062000208565b336000806101000a81548173ffffffffffffffffffffffffffffffffffffffff021916908373ffffffffffffffffffffffffffffffffffffffff1602179055508060038190555060005b828110156200014057620000d762000149565b60048190806001815401808255809150506001900390600052602060002090600402016000909190919091506000820151816000019060036200011c9291906200016b565b50602082015181600301555050508080620001379062000253565b915050620000c4565b505050620002ea565b60405180604001604052806200015e620001b0565b8152602001600081525090565b82600381019282156200019d579160200282015b828111156200019c5782518255916020019190600101906200017f565b5b509050620001ac9190620001d2565b5090565b6040518060600160405280600390602082028036833780820191505090505090565b5b80821115620001ed576000816000905550600101620001d3565b5090565b6000815190506200020281620002d0565b92915050565b600080604083850312156200021c57600080fd5b60006200022c85828601620001f1565b92505060206200023f85828601620001f1565b9150509250929050565b6000819050919050565b6000620002608262000249565b91507fffffffffffffffffffffffffffffffffffffffffffffffffffffffffffffffff821415620002965762000295620002a1565b5b600182019050919050565b7f4e487b7100000000000000000000000000000000000000000000000000000000600052601160045260246000fd5b620002db8162000249565b8114620002e757600080fd5b50565b611b8280620002fa6000396000f3fe6080604052600436106100c15760003560e01c80637bd486b31161007f578063ae6c191211610059578063ae6c191214610257578063d8cea0ec14610282578063e81de9f5146102ad578063f72ea9dc146102c4576100c1565b80637bd486b3146101c45780639f9fb434146101ef578063a2f77bcc1461021a576100c1565b8062fa5d46146100c65780631d856e4e146100ef57806329d4f4c31461011a5780634e30b0ac14610157578063570438771461018257806370740ac9146101ad575b600080fd5b3480156100d257600080fd5b506100ed60048036038101906100e891906110d5565b6102e0565b005b3480156100fb57600080fd5b50610104610529565b6040516101119190611862565b60405180910390f35b34801561012657600080fd5b50610141600480360381019061013c919061111a565b61060e565b60405161014e919061189f565b60405180910390f35b34801561016357600080fd5b5061016c61063c565b604051610179919061189f565b60405180910390f35b34801561018e57600080fd5b50610197610642565b6040516101a4919061189f565b60405180910390f35b3480156101b957600080fd5b506101c2610648565b005b3480156101d057600080fd5b506101d961099e565b6040516101e6919061189f565b60405180910390f35b3480156101fb57600080fd5b506102046109a4565b60405161021191906116a7565b60405180910390f35b34801561022657600080fd5b50610241600480360381019061023c919061111a565b6109b7565b60405161024e9190611884565b60405180910390f35b34801561026357600080fd5b5061026c610a68565b604051610279919061168c565b60405180910390f35b34801561028e57600080fd5b50610297610a8c565b6040516102a491906116a7565b60405180910390f35b3480156102b957600080fd5b506102c2610a9f565b005b6102de60048036038101906102d991906110d5565b610c03565b005b600480549050828290501461032a576040517f08c379a0000000000000000000000000000000000000000000000000000000008152600401610321906116c2565b60405180910390fd5b60008054906101000a900473ffffffffffffffffffffffffffffffffffffffff1673ffffffffffffffffffffffffffffffffffffffff163373ffffffffffffffffffffffffffffffffffffffff16146103b8576040517f08c379a00000000000000000000000000000000000000000000000000000000081526004016103af90611822565b60405180910390fd5b600060149054906101000a900460ff16610407576040517f08c379a00000000000000000000000000000000000000000000000000000000081526004016103fe906117e2565b60405180910390fd5b600060159054906101000a900460ff1615610457576040517f08c379a000000000000000000000000000000000000000000000000000000000815260040161044e90611802565b60405180910390fd5b6001600060156101000a81548160ff02191690831515021790555060005b600480549050811015610524578282828181106104bb577f4e487b7100000000000000000000000000000000000000000000000000000000600052603260045260246000fd5b90506020020135600482815481106104fc577f4e487b7100000000000000000000000000000000000000000000000000000000600052603260045260246000fd5b906000526020600020906004020160030181905550808061051c90611a8e565b915050610475565b505050565b610531610fa5565b600560003373ffffffffffffffffffffffffffffffffffffffff1673ffffffffffffffffffffffffffffffffffffffff168152602001908152602001600020604051806060016040529081600082018054806020026020016040519081016040528092919081815260200182805480156105ca57602002820191906000526020600020905b8154815260200190600101908083116105b6575b505050505081526020016001820160009054906101000a900460ff161515151581526020016001820160019054906101000a900460ff161515151581525050905090565b6004818154811061061e57600080fd5b90600052602060002090600402016000915090508060030154905081565b60035481565b60025481565b6000600560003373ffffffffffffffffffffffffffffffffffffffff1673ffffffffffffffffffffffffffffffffffffffff1681526020019081526020016000209050600060149054906101000a900460ff166106da576040517f08c379a00000000000000000000000000000000000000000000000000000000081526004016106d1906117e2565b60405180910390fd5b600060159054906101000a900460ff16610729576040517f08c379a0000000000000000000000000000000000000000000000000000000008152600401610720906117a2565b60405180910390fd5b8060010160009054906101000a900460ff1661077a576040517f08c379a000000000000000000000000000000000000000000000000000000000815260040161077190611762565b60405180910390fd5b8060010160019054906101000a900460ff16156107cc576040517f08c379a00000000000000000000000000000000000000000000000000000000081526004016107c390611782565b60405180910390fd5b6000805b60048054905081101561093557600060048281548110610819577f4e487b7100000000000000000000000000000000000000000000000000000000600052603260045260246000fd5b9060005260206000209060040201600301549050600060048381548110610869577f4e487b7100000000000000000000000000000000000000000000000000000000600052603260045260246000fd5b906000526020600020906004020160000182600381106108b2577f4e487b7100000000000000000000000000000000000000000000000000000000600052603260045260246000fd5b01549050818560000184815481106108f3577f4e487b7100000000000000000000000000000000000000000000000000000000600052603260045260246000fd5b9060005260206000200154141561092057806002546109129190611987565b8461091d9190611931565b93505b5050808061092d90611a8e565b9150506107d0565b5060018260010160016101000a81548160ff0219169083151502179055503373ffffffffffffffffffffffffffffffffffffffff166108fc829081150290604051600060405180830381858888f19350505050158015610999573d6000803e3d6000fd5b505050565b60015481565b600060159054906101000a900460ff1681565b6109bf610fca565b600482815481106109f9577f4e487b7100000000000000000000000000000000000000000000000000000000600052603260045260246000fd5b906000526020600020906004020160405180604001604052908160008201600380602002604051908101604052809291908260038015610a4e576020028201915b815481526020019060010190808311610a3a575b505050505081526020016003820154815250509050919050565b60008054906101000a900473ffffffffffffffffffffffffffffffffffffffff1681565b600060149054906101000a900460ff1681565b60008054906101000a900473ffffffffffffffffffffffffffffffffffffffff1673ffffffffffffffffffffffffffffffffffffffff163373ffffffffffffffffffffffffffffffffffffffff1614610b2d576040517f08c379a0000000000000000000000000000000000000000000000000000000008152600401610b2490611842565b60405180910390fd5b600060149054906101000a900460ff1615610b7d576040517f08c379a0000000000000000000000000000000000000000000000000000000008152600401610b7490611722565b60405180910390fd5b600060159054906101000a900460ff1615610bcd576040517f08c379a0000000000000000000000000000000000000000000000000000000008152600401610bc4906116e2565b60405180910390fd5b6001600060146101000a81548160ff021916908315150217905550600480549050600154610bfb9190611987565b600281905550565b6000600560003373ffffffffffffffffffffffffffffffffffffffff1673ffffffffffffffffffffffffffffffffffffffff16815260200190815260200160002090506004805490508383905014610c90576040517f08c379a0000000000000000000000000000000000000000000000000000000008152600401610c87906116c2565b60405180910390fd5b60003411610cd3576040517f08c379a0000000000000000000000000000000000000000000000000000000008152600401610cca90611702565b60405180910390fd5b8060010160009054906101000a900460ff1615610d25576040517f08c379a0000000000000000000000000000000000000000000000000000000008152600401610d1c90611742565b60405180910390fd5b600060149054906101000a900460ff1615610d75576040517f08c379a0000000000000000000000000000000000000000000000000000000008152600401610d6c90611722565b60405180910390fd5b600060159054906101000a900460ff1615610dc5576040517f08c379a0000000000000000000000000000000000000000000000000000000008152600401610dbc906117c2565b60405180910390fd5b8282826000019190610dd8929190610fea565b5060018160010160006101000a81548160ff02191690831515021790555060005b600480549050811015610ef25760048181548110610e40577f4e487b7100000000000000000000000000000000000000000000000000000000600052603260045260246000fd5b9060005260206000209060040201600001848483818110610e8a577f4e487b7100000000000000000000000000000000000000000000000000000000600052603260045260246000fd5b9050602002013560038110610ec8577f4e487b7100000000000000000000000000000000000000000000000000000000600052603260045260246000fd5b016000815480929190610eda90611a8e565b91905055508080610eea90611a8e565b915050610df9565b5060006127106101f4600154610f0891906119b8565b610f129190611987565b905060008054906101000a900473ffffffffffffffffffffffffffffffffffffffff1673ffffffffffffffffffffffffffffffffffffffff166108fc829081150290604051600060405180830381858888f19350505050158015610f7a573d6000803e3d6000fd5b508034610f879190611a12565b60016000828254610f989190611931565b9250508190555050505050565b6040518060600160405280606081526020016000151581526020016000151581525090565b6040518060400160405280610fdd611037565b8152602001600081525090565b828054828255906000526020600020908101928215611026579160200282015b8281111561102557823582559160200191906001019061100a565b5b5090506110339190611059565b5090565b6040518060600160405280600390602082028036833780820191505090505090565b5b8082111561107257600081600090555060010161105a565b5090565b60008083601f84011261108857600080fd5b8235905067ffffffffffffffff8111156110a157600080fd5b6020830191508360208202830111156110b957600080fd5b9250929050565b6000813590506110cf81611b35565b92915050565b600080602083850312156110e857600080fd5b600083013567ffffffffffffffff81111561110257600080fd5b61110e85828601611076565b92509250509250929050565b60006020828403121561112c57600080fd5b600061113a848285016110c0565b91505092915050565b600061114f838361166e565b60208301905092915050565b61116481611a46565b82525050565b611173816118d4565b61117d8184611904565b9250611188826118ba565b8060005b838110156111b95781516111a08782611143565b96506111ab836118ea565b92505060018101905061118c565b505050505050565b60006111cc826118df565b6111d6818561190f565b93506111e1836118c4565b8060005b838110156112125781516111f98882611143565b9750611204836118f7565b9250506001810190506111e5565b5085935050505092915050565b61122881611a58565b82525050565b61123781611a58565b82525050565b600061124a600e83611920565b91507f496e76616c6964206c656e6774680000000000000000000000000000000000006000830152602082019050919050565b600061128a601a83611920565b91507f5468652067616d65732061726520616c726561647920646f6e650000000000006000830152602082019050919050565b60006112ca600d83611920565b91507f4e6f2073656173207261746f6e000000000000000000000000000000000000006000830152602082019050919050565b600061130a601e83611920565b91507f5468652067616d6573206861766520616c7265616479207374617274656400006000830152602082019050919050565b600061134a601983611920565b91507f544f444f3a20566f7465206d6f7265207468616e206f6e6365000000000000006000830152602082019050919050565b600061138a601683611920565b91507f596f75206469646e2774207061727469636970617465000000000000000000006000830152602082019050919050565b60006113ca601883611920565b91507f596f7527766520616c72656164792065787472616374656400000000000000006000830152602082019050919050565b600061140a601983611920565b91507f5468652067616d6573206172656e277420646f6e6520796574000000000000006000830152602082019050919050565b600061144a603583611920565b91507f5468652067616d65732061726520616c726561647920646f6e652c20796f752060008301527f73686f756c64207472792065787472616374696e6700000000000000000000006020830152604082019050919050565b60006114b0601d83611920565b91507f5468652067616d657320686176656e27742073746172746564207965740000006000830152602082019050919050565b60006114f0602083611920565b91507f596f7527766520616c726561647920696e7075742074686520726573756c74736000830152602082019050919050565b6000611530602683611920565b91507f4f6e6c7920746865206368616972706572736f6e2063616e20696e707574207260008301527f6573756c747300000000000000000000000000000000000000000000000000006020830152604082019050919050565b6000611596603183611920565b91507f4f6e6c7920746865206368616972706572736f6e2063616e207365742074686560008301527f2067616d657320617320737461727465640000000000000000000000000000006020830152604082019050919050565b6000606083016000830151848203600086015261160c82826111c1565b9150506020830151611621602086018261121f565b506040830151611634604086018261121f565b508091505092915050565b608082016000820151611655600085018261116a565b506020820151611668606085018261166e565b50505050565b61167781611a84565b82525050565b61168681611a84565b82525050565b60006020820190506116a1600083018461115b565b92915050565b60006020820190506116bc600083018461122e565b92915050565b600060208201905081810360008301526116db8161123d565b9050919050565b600060208201905081810360008301526116fb8161127d565b9050919050565b6000602082019050818103600083015261171b816112bd565b9050919050565b6000602082019050818103600083015261173b816112fd565b9050919050565b6000602082019050818103600083015261175b8161133d565b9050919050565b6000602082019050818103600083015261177b8161137d565b9050919050565b6000602082019050818103600083015261179b816113bd565b9050919050565b600060208201905081810360008301526117bb816113fd565b9050919050565b600060208201905081810360008301526117db8161143d565b9050919050565b600060208201905081810360008301526117fb816114a3565b9050919050565b6000602082019050818103600083015261181b816114e3565b9050919050565b6000602082019050818103600083015261183b81611523565b9050919050565b6000602082019050818103600083015261185b81611589565b9050919050565b6000602082019050818103600083015261187c81846115ef565b905092915050565b6000608082019050611899600083018461163f565b92915050565b60006020820190506118b4600083018461167d565b92915050565b6000819050919050565b6000819050602082019050919050565b600060039050919050565b600081519050919050565b6000602082019050919050565b6000602082019050919050565b600081905092915050565b600082825260208201905092915050565b600082825260208201905092915050565b600061193c82611a84565b915061194783611a84565b9250827fffffffffffffffffffffffffffffffffffffffffffffffffffffffffffffffff0382111561197c5761197b611ad7565b5b828201905092915050565b600061199282611a84565b915061199d83611a84565b9250826119ad576119ac611b06565b5b828204905092915050565b60006119c382611a84565b91506119ce83611a84565b9250817fffffffffffffffffffffffffffffffffffffffffffffffffffffffffffffffff0483118215151615611a0757611a06611ad7565b5b828202905092915050565b6000611a1d82611a84565b9150611a2883611a84565b925082821015611a3b57611a3a611ad7565b5b828203905092915050565b6000611a5182611a64565b9050919050565b60008115159050919050565b600073ffffffffffffffffffffffffffffffffffffffff82169050919050565b6000819050919050565b6000611a9982611a84565b91507fffffffffffffffffffffffffffffffffffffffffffffffffffffffffffffffff821415611acc57611acb611ad7565b5b600182019050919050565b7f4e487b7100000000000000000000000000000000000000000000000000000000600052601160045260246000fd5b7f4e487b7100000000000000000000000000000000000000000000000000000000600052601260045260246000fd5b611b3e81611a84565b8114611b4957600080fd5b5056fea2646970667358221220a0bdb3670ffda742f20f330dc6deec11e8c92f8e963a1fbd6b6844344a0ba16064736f6c63430008000033",
  "immutableReferences": {},
  "source": "// ADAPTED FROM: https://docs.soliditylang.org/en/v0.8.4/solidity-by-example.html\n// SPDX-License-Identifier: GPL-3.0\npragma solidity >=0.7.0 <0.9.0;\n/// @title Voting with delegation.\n\ncontract Wager {\n\taddress payable public Chairperson;\n\t\n\tbool public Started = false; //U: If the games have started \n\tbool public Done = false; //U: If the game has already been played, and money can be extracted\n\n\tuint256 public TotalPool = 0; //U: Total pool of money\n\tuint256 public GamePool = 0; //U: Equal parts of the total pool for each game \n\tuint256 public MinPrice = 1; //U: Minimum price for a bet\n\n\tstruct Game {\n\t\tuint[3] votes; //U: Votes for each result (0 local, 1 away, 2 tie)\n\t\tuint result; //U: Result for the game (0 local, 1 away, 2 tie)\n\t}\n\tGame[] public Games; //U: List of games with the number of votes for each result\n\n\tstruct Bettor {\n\t\tuint[] votes; //U: Predicted result for the games (0 local, 1 away, 2 tie)\n\t\tbool voted; //TODO: Let them vote more than once\n\t\tbool extracted; //U: Only let them extract once\n\t}\n\tmapping(address => Bettor) bettors;\n\n\tconstructor(uint TotalGames, uint256 price) {\n\t\tChairperson = payable(msg.sender);\n\t\tMinPrice = price;\n\n\t\tfor (uint i = 0; i < TotalGames; i++) { //A: Fill the Games array TODO: There's got to be a faster way\n\t\t\tGame memory game;\n\t\t\tGames.push(game);\n\t\t}\n\t}\n\t\n\tfunction placeBet(uint[] calldata votes) public payable { //U: Place bets\n\t\tBettor storage bettor = bettors[msg.sender];\n\n\t\trequire(votes.length == Games.length, \"Invalid length\");\n\t\trequire(msg.value > 0, \"No seas raton\"); //TODO: Set minimum price\n\t\trequire(!bettor.voted, \"TODO: Vote more than once\");\n\t\trequire(!Started, \"The games have already started\");\n\t\trequire(!Done, \"The games are already done, you should try extracting\");\n\n\t\tbettor.votes = votes;\n\t\tbettor.voted = true;\n\n\t\tfor (uint i = 0; i < Games.length; i++) {\n\t\t\tGames[i].votes[votes[i]]++;\n\t\t}\n\n\t\tuint256 forChair = TotalPool * 500 / 10000; //A: 5% for the chairperson\n\t\tChairperson.transfer(forChair);\n\n\t\tTotalPool += msg.value - forChair;\n\t}\n\n\tfunction startGames() public { //U: Marks the games a started TODO: Automatize with a date\n\t\trequire(msg.sender == Chairperson, \"Only the chairperson can set the games as started\");\n\t\trequire(!Started, \"The games have already started\");\n\t\trequire(!Done, \"The games are already done\");\n\n\t\tStarted = true;\n\t\tGamePool = TotalPool / (uint256(Games.length));\n\t}\n\n\tfunction inputResults(uint[] calldata results) public { //U: Input the results and allow winners to extract their money\n\t\trequire(results.length == Games.length, \"Invalid length\");\n\t\trequire(msg.sender == Chairperson, \"Only the chairperson can input results\");\n\t\trequire(Started, \"The games haven't started yet\"); //TODO: Should I be checking for this?\n\t\trequire(!Done, \"You've already input the results\");\n\n\t\tDone = true;\n\n\t\tfor (uint i = 0; i < Games.length; i++) {\n\t\t\tGames[i].result = results[i];\n\t\t}\n\t}\n\n\tfunction claimPrize() public { //U: Let the winners extract their prize\n\t\tBettor storage bettor = bettors[msg.sender];\n\t\t\n\t\trequire(Started, \"The games haven't started yet\"); //TODO: Should I be checking for this?\n\t\trequire(Done, \"The games aren't done yet\");\n\t\trequire(bettor.voted, \"You didn't participate\");\n\t\trequire(!bettor.extracted, \"You've already extracted\");\n\n\t\tuint256 prize = 0;\n\t\tfor (uint i = 0; i < Games.length; i++) {\n\t\t\tuint result = Games[i].result;\n\t\t\tuint256 otherVotes = Games[i].votes[result];\n\t\t\tif (bettor.votes[i] == result) { //A: They got this one right\n\t\t\t\tprize += GamePool / otherVotes; //A: 1/guesses for this result\n\t\t\t\t//A: It's not dividing by zero because AT LEAST this person voted for this result\n\t\t\t}\n\t\t}\n\n\t\tbettor.extracted = true; //A: Set it before transfering so that they can't send a request again\n\t\tpayable(msg.sender).transfer(prize);\n\t}\n\n\tfunction getBettor() public view returns (Bettor memory) { //U: Tells you if you can vote\n\t\t//Bettor storage bettor = bettors[msg.sender];\n\t\treturn bettors[msg.sender];\n\t}\n\n\tfunction getGame(uint i) public view returns (Game memory) {\n\t\treturn Games[i];\n\t}\n}\n",
  "sourcePath": "/home/galileo/hdd/Documents/devel/work/crypto/solidity/contracts/Wager.sol",
  "compiler": {
    "name": "solc",
    "version": "0.8.0+commit.c7dfd78e.Emscripten.clang"
  },
  "schemaVersion": "3.4.2",
  "updatedAt": "2021-09-03T02:09:44.712Z",
  "devdoc": {
    "kind": "dev",
    "methods": {},
    "title": "Voting with delegation.",
    "version": 1
  },
  "userdoc": {
    "kind": "user",
    "methods": {},
    "version": 1
  }
}