{
  "contractName": "Wager",
  "abi": [
    {
      "inputs": [],
      "stateMutability": "nonpayable",
      "type": "constructor"
    },
    {
      "inputs": [],
      "name": "Chairperson",
      "outputs": [
        {
          "internalType": "address payable",
          "name": "",
          "type": "address"
        }
      ],
      "stateMutability": "view",
      "type": "function",
      "constant": true
    },
    {
      "inputs": [],
      "name": "Done",
      "outputs": [
        {
          "internalType": "bool",
          "name": "",
          "type": "bool"
        }
      ],
      "stateMutability": "view",
      "type": "function",
      "constant": true
    },
    {
      "inputs": [
        {
          "internalType": "uint256",
          "name": "",
          "type": "uint256"
        },
        {
          "internalType": "uint256",
          "name": "",
          "type": "uint256"
        }
      ],
      "name": "Games",
      "outputs": [
        {
          "internalType": "uint256",
          "name": "",
          "type": "uint256"
        }
      ],
      "stateMutability": "view",
      "type": "function",
      "constant": true
    },
    {
      "inputs": [
        {
          "internalType": "uint256",
          "name": "",
          "type": "uint256"
        }
      ],
      "name": "Results",
      "outputs": [
        {
          "internalType": "uint256",
          "name": "",
          "type": "uint256"
        }
      ],
      "stateMutability": "view",
      "type": "function",
      "constant": true
    },
    {
      "inputs": [],
      "name": "Started",
      "outputs": [
        {
          "internalType": "bool",
          "name": "",
          "type": "bool"
        }
      ],
      "stateMutability": "view",
      "type": "function",
      "constant": true
    },
    {
      "inputs": [],
      "name": "TotalPool",
      "outputs": [
        {
          "internalType": "uint256",
          "name": "",
          "type": "uint256"
        }
      ],
      "stateMutability": "view",
      "type": "function",
      "constant": true
    },
    {
      "inputs": [
        {
          "internalType": "uint256[13]",
          "name": "votes",
          "type": "uint256[13]"
        },
        {
          "internalType": "uint256[2]",
          "name": "doubles",
          "type": "uint256[2]"
        }
      ],
      "name": "placeBet",
      "outputs": [],
      "stateMutability": "payable",
      "type": "function",
      "payable": true
    },
    {
      "inputs": [],
      "name": "startGames",
      "outputs": [],
      "stateMutability": "nonpayable",
      "type": "function"
    },
    {
      "inputs": [
        {
          "internalType": "uint256[13]",
          "name": "results",
          "type": "uint256[13]"
        }
      ],
      "name": "inputResults",
      "outputs": [],
      "stateMutability": "nonpayable",
      "type": "function"
    },
    {
      "inputs": [],
      "name": "claimPrize",
      "outputs": [],
      "stateMutability": "nonpayable",
      "type": "function"
    }
  ],
  "bytecode": "0x608060405260008060146101000a81548160ff02191690831515021790555060008060156101000a81548160ff021916908315150217905550600060015534801561004957600080fd5b50336000806101000a81548173ffffffffffffffffffffffffffffffffffffffff021916908373ffffffffffffffffffffffffffffffffffffffff1602179055506116c2806100996000396000f3fe6080604052600436106100915760003560e01c8063af3db57311610059578063af3db57314610157578063d5edca5414610173578063d8cea0ec146101b0578063e81de9f5146101db578063f376fd16146101f257610091565b80635dd44fcf1461009657806370740ac9146100bf5780637bd486b3146100d65780639f9fb43414610101578063ae6c19121461012c575b600080fd5b3480156100a257600080fd5b506100bd60048036038101906100b89190610f09565b61022f565b005b3480156100cb57600080fd5b506100d461042e565b005b3480156100e257600080fd5b506100eb6107f6565b6040516100f89190611445565b60405180910390f35b34801561010d57600080fd5b506101166107fc565b60405161012391906112ea565b60405180910390f35b34801561013857600080fd5b5061014161080f565b60405161014e91906112cf565b60405180910390f35b610171600480360381019061016c9190610f33565b610833565b005b34801561017f57600080fd5b5061019a60048036038101906101959190610f9a565b610c74565b6040516101a79190611445565b60405180910390f35b3480156101bc57600080fd5b506101c5610ca2565b6040516101d291906112ea565b60405180910390f35b3480156101e757600080fd5b506101f0610cb5565b005b3480156101fe57600080fd5b5061021960048036038101906102149190610f71565b610e00565b6040516102269190611445565b60405180910390f35b60008054906101000a900473ffffffffffffffffffffffffffffffffffffffff1673ffffffffffffffffffffffffffffffffffffffff163373ffffffffffffffffffffffffffffffffffffffff16146102bd576040517f08c379a00000000000000000000000000000000000000000000000000000000081526004016102b490611405565b60405180910390fd5b600060149054906101000a900460ff1661030c576040517f08c379a0000000000000000000000000000000000000000000000000000000008152600401610303906113c5565b60405180910390fd5b600060159054906101000a900460ff161561035c576040517f08c379a0000000000000000000000000000000000000000000000000000000008152600401610353906113e5565b60405180910390fd5b80602990600d61036d929190610e1b565b506001600060156101000a81548160ff02191690831515021790555060006127106101f460015461039e91906114f8565b6103a891906114c7565b905080600160008282546103bc9190611552565b9250508190555060008054906101000a900473ffffffffffffffffffffffffffffffffffffffff1673ffffffffffffffffffffffffffffffffffffffff166108fc829081150290604051600060405180830381858888f19350505050158015610429573d6000803e3d6000fd5b505050565b6000603660003373ffffffffffffffffffffffffffffffffffffffff1673ffffffffffffffffffffffffffffffffffffffff1681526020019081526020016000209050600060149054906101000a900460ff166104c0576040517f08c379a00000000000000000000000000000000000000000000000000000000081526004016104b7906113c5565b60405180910390fd5b600060159054906101000a900460ff1661050f576040517f08c379a0000000000000000000000000000000000000000000000000000000008152600401610506906113a5565b60405180910390fd5b80600f0160019054906101000a900460ff1615610561576040517f08c379a000000000000000000000000000000000000000000000000000000000815260040161055890611385565b60405180910390fd5b6000805b600d81101561078d576000602982600d81106105aa577f4e487b7100000000000000000000000000000000000000000000000000000000600052603260045260246000fd5b01548460000183600d81106105e8577f4e487b7100000000000000000000000000000000000000000000000000000000600052603260045260246000fd5b0154141561076b57600282600d811061062a577f4e487b7100000000000000000000000000000000000000000000000000000000600052603260045260246000fd5b60030201602983600d8110610668577f4e487b7100000000000000000000000000000000000000000000000000000000600052603260045260246000fd5b0154600381106106a1577f4e487b7100000000000000000000000000000000000000000000000000000000600052603260045260246000fd5b01546127106103016001546106b691906114f8565b6106c091906114c7565b6106ca91906114c7565b90508184600d0160006002811061070a577f4e487b7100000000000000000000000000000000000000000000000000000000600052603260045260246000fd5b0154148061075557508184600d01600160028110610751577f4e487b7100000000000000000000000000000000000000000000000000000000600052603260045260246000fd5b0154145b1561076a5760028161076791906114f8565b90505b5b80836107779190611471565b9250508080610785906115ce565b915050610565565b50600182600f0160016101000a81548160ff0219169083151502179055503373ffffffffffffffffffffffffffffffffffffffff166108fc829081150290604051600060405180830381858888f193505050501580156107f1573d6000803e3d6000fd5b505050565b60015481565b600060159054906101000a900460ff1681565b60008054906101000a900473ffffffffffffffffffffffffffffffffffffffff1681565b6000603660003373ffffffffffffffffffffffffffffffffffffffff1673ffffffffffffffffffffffffffffffffffffffff1681526020019081526020016000209050600034116108b9576040517f08c379a00000000000000000000000000000000000000000000000000000000081526004016108b090611325565b60405180910390fd5b80600f0160009054906101000a900460ff161561090b576040517f08c379a000000000000000000000000000000000000000000000000000000000815260040161090290611365565b60405180910390fd5b600060149054906101000a900460ff161561095b576040517f08c379a000000000000000000000000000000000000000000000000000000000815260040161095290611345565b60405180910390fd5b600060159054906101000a900460ff16156109ab576040517f08c379a00000000000000000000000000000000000000000000000000000000081526004016109a290611305565b60405180910390fd5b828160000190600d6109be929190610e1b565b508181600d019060026109d2929190610e5b565b50600181600f0160006101000a81548160ff021916908315150217905550600081600f0160016101000a81548160ff0219169083151502179055503460016000828254610a1f9190611471565b9250508190555060005b600d811015610c6e578083600060028110610a6d577f4e487b7100000000000000000000000000000000000000000000000000000000600052603260045260246000fd5b60200201351480610abb57508083600160028110610ab4577f4e487b7100000000000000000000000000000000000000000000000000000000600052603260045260246000fd5b6020020135145b15610b905760028082600d8110610afb577f4e487b7100000000000000000000000000000000000000000000000000000000600052603260045260246000fd5b600302018583600d8110610b38577f4e487b7100000000000000000000000000000000000000000000000000000000600052603260045260246000fd5b602002013560038110610b74577f4e487b7100000000000000000000000000000000000000000000000000000000600052603260045260246000fd5b016000828254610b849190611471565b92505081905550610c5b565b600281600d8110610bca577f4e487b7100000000000000000000000000000000000000000000000000000000600052603260045260246000fd5b600302018482600d8110610c07577f4e487b7100000000000000000000000000000000000000000000000000000000600052603260045260246000fd5b602002013560038110610c43577f4e487b7100000000000000000000000000000000000000000000000000000000600052603260045260246000fd5b016000815480929190610c55906115ce565b91905055505b8080610c66906115ce565b915050610a29565b50505050565b600282600d8110610c8457600080fd5b600302018160038110610c9657600080fd5b01600091509150505481565b600060149054906101000a900460ff1681565b60008054906101000a900473ffffffffffffffffffffffffffffffffffffffff1673ffffffffffffffffffffffffffffffffffffffff163373ffffffffffffffffffffffffffffffffffffffff1614610d43576040517f08c379a0000000000000000000000000000000000000000000000000000000008152600401610d3a90611425565b60405180910390fd5b600060149054906101000a900460ff1615610d93576040517f08c379a0000000000000000000000000000000000000000000000000000000008152600401610d8a90611345565b60405180910390fd5b600060159054906101000a900460ff1615610de3576040517f08c379a0000000000000000000000000000000000000000000000000000000008152600401610dda90611305565b60405180910390fd5b6001600060146101000a81548160ff021916908315150217905550565b602981600d8110610e1057600080fd5b016000915090505481565b82600d8101928215610e4a579160200282015b82811115610e49578235825591602001919060010190610e2e565b5b509050610e579190610e9b565b5090565b8260028101928215610e8a579160200282015b82811115610e89578235825591602001919060010190610e6e565b5b509050610e979190610e9b565b5090565b5b80821115610eb4576000816000905550600101610e9c565b5090565b6000819050826020600d0282011115610ed057600080fd5b92915050565b600081905082602060020282011115610eee57600080fd5b92915050565b600081359050610f0381611675565b92915050565b60006101a08284031215610f1c57600080fd5b6000610f2a84828501610eb8565b91505092915050565b6000806101e08385031215610f4757600080fd5b6000610f5585828601610eb8565b9250506101a0610f6785828601610ed6565b9150509250929050565b600060208284031215610f8357600080fd5b6000610f9184828501610ef4565b91505092915050565b60008060408385031215610fad57600080fd5b6000610fbb85828601610ef4565b9250506020610fcc85828601610ef4565b9150509250929050565b610fdf81611586565b82525050565b610fee81611598565b82525050565b6000611001601a83611460565b91507f5468652067616d65732061726520616c726561647920646f6e650000000000006000830152602082019050919050565b6000611041600d83611460565b91507f4e6f2073656173207261746f6e000000000000000000000000000000000000006000830152602082019050919050565b6000611081601e83611460565b91507f5468652067616d6573206861766520616c7265616479207374617274656400006000830152602082019050919050565b60006110c1601983611460565b91507f544f444f3a20566f7465206d6f7265207468616e206f6e6365000000000000006000830152602082019050919050565b6000611101601883611460565b91507f596f7527766520616c72656164792065787472616374656400000000000000006000830152602082019050919050565b6000611141601983611460565b91507f5468652067616d6573206172656e277420646f6e6520796574000000000000006000830152602082019050919050565b6000611181601d83611460565b91507f5468652067616d657320686176656e27742073746172746564207965740000006000830152602082019050919050565b60006111c1602083611460565b91507f596f7527766520616c726561647920696e7075742074686520726573756c74736000830152602082019050919050565b6000611201602683611460565b91507f4f6e6c7920746865206368616972706572736f6e2063616e20696e707574207260008301527f6573756c747300000000000000000000000000000000000000000000000000006020830152604082019050919050565b6000611267603183611460565b91507f4f6e6c7920746865206368616972706572736f6e2063616e207365742074686560008301527f2067616d657320617320737461727465640000000000000000000000000000006020830152604082019050919050565b6112c9816115c4565b82525050565b60006020820190506112e46000830184610fd6565b92915050565b60006020820190506112ff6000830184610fe5565b92915050565b6000602082019050818103600083015261131e81610ff4565b9050919050565b6000602082019050818103600083015261133e81611034565b9050919050565b6000602082019050818103600083015261135e81611074565b9050919050565b6000602082019050818103600083015261137e816110b4565b9050919050565b6000602082019050818103600083015261139e816110f4565b9050919050565b600060208201905081810360008301526113be81611134565b9050919050565b600060208201905081810360008301526113de81611174565b9050919050565b600060208201905081810360008301526113fe816111b4565b9050919050565b6000602082019050818103600083015261141e816111f4565b9050919050565b6000602082019050818103600083015261143e8161125a565b9050919050565b600060208201905061145a60008301846112c0565b92915050565b600082825260208201905092915050565b600061147c826115c4565b9150611487836115c4565b9250827fffffffffffffffffffffffffffffffffffffffffffffffffffffffffffffffff038211156114bc576114bb611617565b5b828201905092915050565b60006114d2826115c4565b91506114dd836115c4565b9250826114ed576114ec611646565b5b828204905092915050565b6000611503826115c4565b915061150e836115c4565b9250817fffffffffffffffffffffffffffffffffffffffffffffffffffffffffffffffff048311821515161561154757611546611617565b5b828202905092915050565b600061155d826115c4565b9150611568836115c4565b92508282101561157b5761157a611617565b5b828203905092915050565b6000611591826115a4565b9050919050565b60008115159050919050565b600073ffffffffffffffffffffffffffffffffffffffff82169050919050565b6000819050919050565b60006115d9826115c4565b91507fffffffffffffffffffffffffffffffffffffffffffffffffffffffffffffffff82141561160c5761160b611617565b5b600182019050919050565b7f4e487b7100000000000000000000000000000000000000000000000000000000600052601160045260246000fd5b7f4e487b7100000000000000000000000000000000000000000000000000000000600052601260045260246000fd5b61167e816115c4565b811461168957600080fd5b5056fea26469706673582212202dd7c47a03d3431eef1687c65c35584f9026209edd8de4cdbbdb0af34748d04564736f6c63430008000033",
  "immutableReferences": {},
  "source": "// ADAPTED FROM: https://docs.soliditylang.org/en/v0.8.4/solidity-by-example.html\n// SPDX-License-Identifier: GPL-3.0\npragma solidity >=0.7.0 <0.9.0;\n/// @title Voting with delegation.\n\ncontract Wager {\n\taddress payable public Chairperson;\n\t\n\tbool public Started = false; //U: If the games have started \n\tbool public Done = false; //U: If the game has already been played, and money can be extracted\n\n\tuint256 public TotalPool = 0; //U: Total pool of money\n\n\tuint[3][13] public Games; //U: List of games with the number of votes for each result\n\tuint[13] public Results; //U: Results for each game (0 local, 1 away, 2 tie)\n\n\tstruct Bettor {\n\t\tuint[13] votes; //U: Predicted result for the games (0 local, 1 away, 2 tie)\n\t\tuint[2] doubles; //U: Games marked as double\n\t\tbool voted; //TODO: Let them vote more than once\n\t\tbool extracted; //U: Only let them extract once\n\t}\n\tmapping(address => Bettor) bettors;\n\n\tconstructor() {\n\t\tChairperson = payable(msg.sender);\n\t}\n\t\n\tfunction placeBet(uint[13] calldata votes, uint[2] calldata doubles) public payable { //U: Place a bet\n\t\tBettor storage bettor = bettors[msg.sender];\n\n\t\trequire(msg.value > 0, \"No seas raton\");\n\t\trequire(!bettor.voted, \"TODO: Vote more than once\");\n\t\trequire(!Started, \"The games have already started\"); \n\t\trequire(!Done, \"The games are already done\");\n\n\t\tbettor.votes = votes;\n\t\tbettor.doubles = doubles;\n\t\tbettor.voted = true;\n\t\tbettor.extracted = false;\n\n\t\tTotalPool += msg.value;\n\n\t\tfor (uint game = 0; game < Games.length; game++) { //TODO: Is it more efficient to separate this loop in the 13 games?\n\t\t\tif (doubles[0] == game || doubles[1] == game) { //A: Is marked as a double\n\t\t\t\tGames[game][votes[game]] += 2;\n\t\t\t} else {\n\t\t\t\tGames[game][votes[game]]++;\n\t\t\t}\n\t\t}\n\t}\n\n\tfunction startGames() public {\n\t\trequire(msg.sender == Chairperson, \"Only the chairperson can set the games as started\");\n\t\trequire(!Started, \"The games have already started\");\n\t\trequire(!Done, \"The games are already done\");\n\n\t\tStarted = true;\n\t}\n\n\tfunction inputResults(uint[13] calldata results) public { //U: Input the results and allow winners to extract their money\n\t\trequire(msg.sender == Chairperson, \"Only the chairperson can input results\");\n\t\trequire(Started, \"The games haven't started yet\"); //TODO: Should I be checking for this?\n\t\trequire(!Done, \"You've already input the results\");\n\n\t\tResults = results;\n\t\tDone = true;\n\n\t\tuint256 forChair = TotalPool * 500 / 10000; //A: 5% for the chairperson\n\t\tTotalPool -= forChair;\n\t\tChairperson.transfer(forChair);\n\t}\n\n\tfunction claimPrize() public { //U: Let the winners extract their prize\n\t\tBettor storage bettor = bettors[msg.sender];\n\t\t\n\t\trequire(Started, \"The games haven't started yet\");\n\t\trequire(Done, \"The games aren't done yet\");\n\t\trequire(!bettor.extracted, \"You've already extracted\");\n\n\t\tuint256 forWinner = 0;\n\t\tfor (uint game = 0; game < Results.length; game++) {\n\t\t\tuint256 thisGame = 0;\n\t\t\tif (bettor.votes[game] == Results[game]) { //A: They got this one right\n\t\t\t\tthisGame =\n\t\t\t\t\tTotalPool * 769 / 10000 //A: 1/13th of the pool for each game\n\t\t\t\t\t/ Games[game][Results[game]]; //A: 1/guesses for this result\n\n\t\t\t\tif (bettor.doubles[0] == game || bettor.doubles[1] == game) { //A: They marked it as a double\n\t\t\t\t\tthisGame *= 2;\n\t\t\t\t}\n\t\t\t}\n\n\t\t\tforWinner += thisGame;\n\t\t}\n\n\t\tbettor.extracted = true; //A: Set it before transfering so that they can't \n\t\tpayable(msg.sender).transfer(forWinner);\n\t}\n}\n",
  "sourcePath": "/home/galileo/hdd/Documents/devel/work/eth/project/contracts/Wager.sol",
  "compiler": {
    "name": "solc",
    "version": "0.8.0+commit.c7dfd78e.Emscripten.clang"
  },
  "schemaVersion": "3.4.2",
  "updatedAt": "2021-08-15T22:32:35.451Z",
  "networkType": "ethereum",
  "devdoc": {
    "kind": "dev",
    "methods": {},
    "title": "Voting with delegation.",
    "version": 1
  },
  "userdoc": {
    "kind": "user",
    "methods": {},
    "version": 1
  }
}